:020000041000EA
:1000000000B5324B212058609868022188439860DF
:10001000D860186158612E4B002199600221596106
:100020000121F02299502B49196001219960352056
:1000300000F044F80222904214D00621196600F024
:1000400034F8196E01211966002018661A6600F04E
:100050002CF8196E196E196E052000F02FF8012189
:100060000842F9D1002199601B49196000215960AB
:100070001A491B48016001219960EB211966A021F2
:10008000196600F012F800219960164914480160C1
:100090000121996001BC002800D000471248134993
:1000A000086003C880F30888084703B5996A0420EC
:1000B0000142FBD001200142F8D103BD02B5186610
:1000C0001866FFF7F2FF186E186E02BD00000240BE
:1000D000000000180000070000035F00212200005C
:1000E000F4000018222000A00001001008ED00E03C
:1000F00000000000000000000000000074B24E7A12
:1001000000200420F7010010C3010010C5010010F9
:10011000C1010010C1010010C1010010C101001097
:10012000C1010010C1010010C1010010C701001081
:10013000C1010010C1010010C901001019230010F5
:10014000CD010010CD010010CD010010CD01001037
:10015000CD010010CD010010CD010010CD01001027
:10016000CD010010CD010010CD010010CD01001017
:10017000CD010010CD010010CD010010CD01001007
:10018000CD010010CD010010CD010010CD010010F7
:10019000CD010010CD010010CD010010CD010010E7
:1001A000CD010010CD010010CD010010CD010010D7
:1001B000CD010010CD010010CD010010CD010010C7
:1001C00000BE00BE00BE00BE00BE00BEEFF3058054
:1001D000103800BEF2EB8871DCDC091000DD09107C
:1001E0003402001090A31AE700201F49086006C8D7
:1001F00081F3088810471D48006800282FD10DA4FE
:100200000ECC002902D000F012F8F9E71849194A7B
:10021000002000E001C19142FCD1174988471749ED
:1002200088471749884700BEFDE701C901C29A42C5
:10023000FBD3704700DD0910C000002058210020CA
:10024000B8FD09100000042000000420B8FD0910CA
:10025000001004200010042000000000704709482E
:1002600005F0A8FB0047000008ED00E0000000D00A
:1002700078210020043A0120D9460010DD03001047
:10028000974600105756000006005250ABB360531B
:100290004066051006005250861C03025066051089
:1002A000060052505422A29D586605100500525077
:1002B000DE65F468B8FD0910F8B5C04610B5064C07
:1002C0002378002B07D1054B002B02D0044800E017
:1002D00000BF0123237010BDD022002000000000C9
:1002E00058510510044B10B5002B03D003490448A6
:1002F00000E000BF10BDC04600000000D422002076
:100300005851051070B504000D00012805D0002CCF
:1003100002D1074B9D4207D070BD054B9942F6D1E3
:10032000044814F0F1FCF2E7024814F0FDFCF3E796
:10033000FFFF0000AC79002030B583B0050001A8B4
:1003400001F048FC1FE0224A13680C3B1868801833
:1003500001214369194327F0DFF82BE026F0F0FF75
:1003600020001AF045FE23689B690A212000984767
:100370000100174831F034FA31F0AEF90098002846
:1003800001D006F073F86A461249280001F052FFC6
:100390000028F3D0122210490D4831F091FA009C48
:1003A000002CD0D0200049F015FB020021000848A5
:1003B00031F086FA06490A680C3A13685B18DC6F5C
:1003C000002CCBD0237F002BCAD02723E15CD0E7C1
:1003D000DC76002060EA00005851051010B59CB092
:1003E00006F01CFA01F014FD04230A2205A90FA847
:1003F00001F0E4FE8024A4010FAB02930D4B0193A6
:100400000D4B00930D4B012221000D4801F08CFC97
:100410000FAB02930B4B01930B4B00930B4B022240
:1004200021000B4801F080FC01F06CFC00201CB0A6
:1004300010BDC046202300200C240020E50400103D
:100440006C510510EC2200200C44002039030010F0
:100450007851051010B5040005E06368591E0122AB
:10046000200031F0CBFF6368013B2268D35C0D2B89
:10047000F3D00A2BF1D010BD10B505F069FF10BD07
:1004800010B505F0C3FF10BD70B582B005000E1E9B
:100490000DD0941B01940F2C0ED82868012C14D079
:1004A000002C14D02200310005F0CEFF0FE0914265
:1004B000EFD00B4826F054FF002201A9280031F0AC
:1004C00001FF2860019BAB60E7E733780370019A76
:1004D0006A602B689B1800221A7002B070BDC0467B
:1004E0008851051030B599B005005C2005F0B2FFC9
:1004F000040001F017FA21000CA800F0F8FB3B4AB9
:100500003B490CA800F074F9002804D039493A4856
:1005100031F014FB2EE03949374831F00FFB0CA8BD
:1005200000F065FA002001F0A3FCEFE701222EE0C5
:1005300026F006FF20001AF05BFD23689B690A2164
:100540002000984701002C4831F04AF931F0C4F8F6
:100550000CA800F020F9069808AB984203D0089B3D
:10056000591C05F087FF0398059B191A002801D034
:1005700005F080FF0CA903A800F0FEFA039C08AB6D
:100580000693002CD2D0200049F024FA2218002330
:10059000210006A8FFF778FF06A8FFF75BFF079B7F
:1005A0000193180005F05AFF0290069948F0A6FA48
:1005B000134A02A9280001F011FE124906A832F0E0
:1005C00087F90028C7D10C4C1C220F49200031F0BC
:1005D00077F923680C3B18680019C46F002CA7D06A
:1005E000237F002BA6D02723E15CACE7B451051094
:1005F000C4510510F0510510DC760020D0510510D3
:1006000010270000105205101852051010B50249AD
:100610000120FFF777FE10BDFFFF000010B5036853
:100620005B68984710BD10B50400080011680068A9
:1006300024681A00A04710BD012A02D101600020E1
:100640007047022A05D0032AF9D0012AF7D10160A8
:10065000F5E70B680360F2E7024B0360024B0360AF
:100660007047C046C0520510A452051000207047C4
:1006700010B50400044B0360044B0360102105F027
:10068000F9FE200010BDC046C0520510A45205104E
:1006900070B50400012A03D10B680360002070BD0F
:1006A000022A06D0032A0DD0012AF7D10B68036075
:1006B000F4E70D68082005F0CDFE030006CD06C363
:1006C0002060EBE700680028E8D0082105F0D2FEA2
:1006D000E4E710B5C068002801D005F0C7FE10BDE2
:1006E00070B504000D00012805D0002C02D1074B85
:1006F0009D4207D070BD054B9942F6D1044814F0D5
:1007000003FBF2E7024814F00FFBF3E7FFFF0000E2
:10071000B079002000B585B003AB01930290054B82
:100720000360054B0360002802D0102105F0A2FEF3
:1007300005B000BDC0520510A452051030B589B0F7
:1007400004680392049125680868136805930023E0
:100750000693516801915360069113609368019369
:100760000793626805A9A847069C002C11D063680E
:10077000013B6360002B0CD123689B6820009847E5
:10078000A368013BA360002B03D12368DB68200032
:10079000984709B030BD10B5006803685B6898479A
:1007A00010BD000000238360002904D00160024BCB
:1007B000C360024B836070472706001039060010A3
:1007C00070B504000D0000238360082005F042FE90
:1007D0002B6803606B6843602060034BE360034B4E
:1007E000A360200070BDC0463D07001091060010B8
:1007F000F0B5C64600B58CB004000E0017000579B0
:10080000002D04D128000CB080BCB846F0BD0568AE
:100810002B689B6898461E4902A8FFF7C3FF02AAEF
:1008200021002800C047049B002B03D0032202A90B
:1008300008009847174B009301942379002B22D08E
:1008400025682B68DB689846082269460AA805F0E7
:10085000FBFD0AA906A8FFF7B3FF06AA210028009E
:10086000C047089B002B03D0032206A90800984725
:100870002579002D09D0206803681C68064B3A00D2
:100880003100A047BEE745F0DBFD45F0D9FDC0468D
:10089000750F00100F0F00101027000070B50C002E
:1008A000150004E001CCFC21490005F0E3FDAC4259
:1008B000F8D370BD10B504000368002B09D0436A5B
:1008C0001A1D4169FFF7EAFF63689900206805F087
:1008D000D1FD200010BDF8B5CE46474680B589460B
:1008E0009046CB681F1D19E00C35AE4215D06C68E0
:1008F000002CF9D06368013B6360002BF4D12368BE
:100900009B6820009847A368013BA360002BEBD1B4
:100910002368DB6820009847E6E704374346DB6836
:10092000BB4204D93D682E00F936FF36DDE74A4662
:10093000D268934239D04B461D689E6804E0236814
:10094000DB68200098470C35AE4211D06C68002C53
:10095000F9D06368013B6360002BF4D123689B6886
:1009600020009847A368013BA360002BEBD1E6E78A
:1009700043465D681E6800E00C35AE4233D06C68BB
:10098000002CF9D06368013B6360002BF4D123682D
:100990009B6820009847A368013BA360002BEBD124
:1009A0002368DB6820009847E6E74B461C6843460F
:1009B0001E6800E00C34A64215D06568002DF9D001
:1009C0006B68013B6B60002BF4D12B689B6828009F
:1009D0009847AB68013BAB60002BEBD12B68DB6821
:1009E00028009847E6E7C0BCB946B046F8BD70B5E8
:1009F00090B005000400036904934369059380697E
:100A00000690E96907912A6A00926B6A0193AE6ABF
:100A10000296EE6A03962E690C966E690D960E90FC
:100A20000F9108920993AB6A0A93EB6A08340B930F
:100A300008AA0CA92000FFF74EFF2000FFF73AFF9D
:100A40002B79002B02D1280010B070BD00232B7130
:100A50002868002802D0042105F00CFD00232B603B
:100A6000F1E770B5040083685D68002D11D06B68F4
:100A7000013B6B60002B0CD12B689B6828009847CA
:100A8000AB68013BAB60002B03D12B68DB6828000F
:100A90009847FC214900E06805F0ECFC63691A1DE9
:100AA00062615B68E3601A00F932FF322261A36081
:100AB00070BD0000F0B5C64600B504000D0017007B
:100AC000561A03689846836842469B1A9E4226D966
:100AD000002E17DB1BD018DB300005F0BBFC804676
:100AE0007A1BAF4216D12068A368191A002801D0DA
:100AF00005F0C0FC4346236046446660A66080BCA7
:100B0000B846F0BD1B4826F043FC26F009FC002344
:100B10009846E5E72900404647F080FBE3E7426856
:100B20004346D31A9E420DD8002E05D14644636831
:100B3000B342E4D06660E2E732002900404647F065
:100B40006DFBF3E70068121A8E18002A07D165685A
:100B5000BB1B9846B74206D145446560CFE72900E4
:100B600047F05CFBF3E71A003100280047F056FB22
:100B7000F2E7C04638520510F0B5CE46474680B57C
:100B800089B005000B690A6A9342FBD004934A6955
:100B900005928A690692CA6907921A68904601927C
:100BA0005E680296002E02D07268013272609F6801
:100BB000039708310C008A680B690C3B9A423FD0BE
:100BC00053689946002B14D05B68013B4A4653603A
:100BD000002B0ED113689B68484698474B469B688C
:100BE000013B4A469360002B03D11368DB684846FB
:100BF0009847A3680C33A36000232B606B60AB6045
:100C00003A00424441462800FFF754FF002E11D01D
:100C10007368013B7360002B0CD133689B68300014
:100C20009847B368013BB360002B03D13368DB689E
:100C300030009847280009B0C0BCB946B046F0BDA6
:100C40000800FFF70EFFD7E770B50C00150004E0B1
:100C5000FC20400005F0FEFB01C4AC42F8D370BD9F
:100C6000F0B583B004000F002A21380004F0F6FE2E
:100C7000451C0823009303300190082833D86B46A5
:100C80001868606080239B0598422ED2800005F092
:100C9000E1FB060020606368581B4008800036189E
:100CA000AD0075192A0031002000FFF7CDFF666105
:100CB0003368E3601A00F932FF322261043D656255
:100CC0002D68E5612A00F932FF322262A3602A21F1
:100CD000380004F0C3FE0B004900C91889006D18E4
:100CE000A56103B0F0BD01ABCAE726F019FB70B5F2
:100CF00082B006000023019301910160019301334A
:100D0000037100250400083428220021200005F08A
:100D100095FBB5606560A560E56025616561A561CD
:100D2000E5612562656200212000FFF799FF300030
:100D300002B070BDF0B5CE46474680B583B0040022
:100D400001919046426A4169571ABD1001350198D8
:100D5000451963686E00B3421FD926685B1B5B08A8
:100D60009B004546002D01D0850000E000255D195F
:100D70007519A94207D9131D5A1A994236D028006D
:100D800047F04CFA32E0131D381D28185A1A9942C0
:100D90002CD0801A47F042FA28E0221D984237D81A
:100DA00016689E19023680239B059E4232D2B000FF
:100DB00005F050FB8146751B6D08AD004346002BC6
:100DC0002AD0019B9B00ED184D446169636A04338E
:100DD0005A1A994202D0280047F020FA6368990015
:100DE000206805F047FB4B462360666065612B6811
:100DF000E360F933FF332361ED1965622B68E3612A
:100E0000F933FF33236203B0C0BCB946B046F0BD2E
:100E100001AAC5E726F084FA0023D4E770B50400E0
:100E20000D000300426A18334069121A9210013A09
:100E30002A2050435B68A269D31A9B109A00D218EB
:100E40001601921916029219160492195200D2181C
:100E500082182369A1685B1A99108B005B1818012E
:100E60001B1818021B1818041B185B005B18D218FB
:100E7000184B9A4224D0636A22689B1A9B106268BE
:100E8000D31A012B1FD9666AFC20400005F0E2FA54
:100E90007060A2692B6813606B685360002B02D0EE
:100EA000596801315960AB689360636A1A1D6262C8
:100EB0005B68E3611A00F932FF322262A36170BD00
:100EC000054826F065FA002201212000FFF732FFD5
:100ED000D9E7C046AAAAAA0A6C52051010B5083074
:100EE0008369026A0C3A93420ED00A681A604A6813
:100EF0005A60002A02D05468013454608A689A60AB
:100F000083690C33836110BDFFF788FFFBE710B5E1
:100F100084B010000B6801934B680293002B02D041
:100F20005A6801325A608B68039301A9FFF7D6FF14
:100F3000029C002C11D06368013B6360002B0CD134
:100F400023689B6820009847A368013BA360002B9F
:100F500003D12368DB682000984704B010BD70B54A
:100F600004000D00102005F075FA25606060200077
:100F700070BD000070B588B015008020000105F03C
:100F80006DFA040000230370411C2B4B03E0002288
:100F90000A700131013B002BF9DA04940026059612
:100FA00001A902A8FFF7DBFF039B244A1A60012274
:100FB0005A609A60224A1A60DC60059303962B6897
:100FC0001C68049B0693059B0793002B02D05A686C
:100FD00001325A608022120106A92800A047079C0E
:100FE000002C11D06368013B6360002B0CD1236897
:100FF0009B6820009847A368013BA360002B03D1A6
:101000002368DB6820009847059C002C11D063689A
:10101000013B6360002B0CD123689B68200098473C
:10102000A368013BA360002B03D12368DB68200089
:10103000984708B070BDC046FE070000A4520510D6
:10104000C052051010B502490120FFF749FB10BD41
:10105000FFFF0000014B03607047C046DC520510E3
:10106000014B03607047C046DC52051070B50400A8
:101070000D00012805D0002C02D1074B9D4207D05E
:1010800070BD054B9942F6D1044813F03DFEF2E7DE
:10109000024813F049FEF3E7FFFF0000B479002097
:1010A000F8B50400080011002279012A00D0F8BD2B
:1010B000804A0FF03FFB051E48D17F4D13227F4928
:1010C000280030F0FDFB09227D49280030F0F8FBB4
:1010D0007C4B186804300FF04DF9051E5FD048F0C6
:1010E00079FC02002900744830F0EAFB72490A6872
:1010F0000C3A13685B18DD6F002D5BD02B7F002B43
:101100005AD02723E95C6C4830F06AFB30F0E4FAEF
:101110002E2008F071FA051E58D06B4A002107F006
:101120005BFE002876D10121280007F021FF061E72
:1011300000D198E02100300007F0A8FF634930009B
:1011400007F0D2FFA66002232371B0E75A4C292290
:101150005F49200030F0B4FB2900200030F0BEFDD4
:10116000050003680C3B1B68C318DC6F002C0AD019
:10117000237F002B09D02723E15C280030F030FBCF
:1011800030F0AAFA93E726F0DBF8200019F030FFE0
:1011900023689B690A21200098470100EDE7464A31
:1011A00013680C3B1868801801214369194326F025
:1011B000B3F99BE726F0C4F8280019F019FF2B6853
:1011C0009B690A212800984701009CE73A4C1422A9
:1011D0004049200030F074FB23680C3B186800196C
:1011E000C46F002C0AD0237F002B09D02723E15C99
:1011F000314830F0F5FA30F06FFA58E726F0A0F8F1
:10120000200019F0F5FE23689B690A212000984709
:101210000100EDE7284C19222F49200030F050FB47
:101220002949200030F05AFD040003680C3B1B687C
:10123000C318DD6F002D0AD02B7F002B09D0272388
:10124000E95C200030F0CCFA30F046FA2FE726F0C7
:1012500077F8280019F0CCFE2B689B690A2128003A
:1012600098470100EDE7144F13221C49380030F075
:1012700027FB3B680C3B1868C019C76F002F0DD0C7
:101280003B7F002B0CD02723F95C0B4830F0A8FAE9
:1012900030F022FA280008F053FA4BE726F050F815
:1012A000380019F0A5FE3B689B690A213800984771
:1012B0000100EAE704004000DC760020105305102E
:1012C0002453051074270120391B00002D1800102D
:1012D000E4520510305305104853051064530510AF
:1012E00010B5037C002B01D0C06810BD45F0A8F8F4
:1012F00010B51400FFF7F4FF00F068FC43689C464B
:1013000064444460002010BD70B582B004000E003B
:10131000282005F09FF80500310000F007FC0023AD
:101320000193019522000C32237C002B14D1019BE8
:10133000E3600023019301331371019C002C07D05B
:1013400006D0200000F00AFC2821200005F092F8C9
:101350000023019302B070BD2B0000220192E568CA
:10136000E360002DE9D0E8D0280000F0F7FB282149
:10137000280005F07FF8E0E770B50500FFF7B0FF43
:1013800000F022FC041E42D0002107F07FFE002264
:101390000021200007F0B0FE0021200007F088FEA9
:1013A0000021200007F076FE0021200007F08EFECD
:1013B000200008F0C5F9041E05D100212800FFF720
:1013C000A3FF200070BD134E13221349300030F0EC
:1013D00077FA33680C3B18688019C66F002E0AD064
:1013E000337F002B09D02723F15C0A4830F0F8F94D
:1013F00030F072F9E1E725F0A3FF300019F0F8FDB5
:1014000033689B690A21300098470100EDE70D24FD
:101410006442D6E7DC7600207853051010B5FFF75C
:10142000ABFF10BDF0B583B005000C000B000D3311
:1014300001D103B0F0BD184E12221849300030F02F
:101440003FFA6B46D91D0C700122300030F038FA9B
:10145000060003680C3B1B68C318DF6F002F0ED01B
:101460003B7F002B0DD02723F95C300030F0B8F91A
:1014700030F032F921002800FFF7D0FFD9E725F03E
:101480005FFF380019F0B4FD3B689B690A21380002
:1014900098470100E9E7C046DC7600208C53051030
:1014A00010B501214942FFF7B9FF10BD10B5FFF794
:1014B00063FF10BD70B504000D00002383608B68CE
:1014C000002B05D002229847EB68E360AB68A3606D
:1014D000200070BD70B50400012A03D10B680360C1
:1014E000002070BD022A06D0032A10D0012AF7D1AD
:1014F0000B680360F4E70E68142004F0ABFF0500EE
:101500003100FFF7D7FF33692B612560E8E70468F6
:10151000002CE5D0A368002B03D00322210020007B
:1015200098471421200004F0A5FFD9E7F0B583B057
:1015300005000C0000268660142004F08BFF8660F6
:10154000EC466246210088C988C22200010088C991
:1015500088C20200634682CB82C2A3688360A66011
:10156000E368C268E260C360236903612860034BDB
:10157000EB60034BAB60280003B0F0BDA11A001074
:10158000D514001070B504000D00002383608B6833
:10159000002B05D002229847EB68E360AB68A3609C
:1015A000200070BD30B587B00400110002A8FFF71D
:1015B000E9FF5034182004F04DFF0500009401901D
:1015C000083002A9FFF7DEFF002301932100280065
:1015D00013F0DAFBA3680133A360049B002B03D054
:1015E000032202A90800984707B030BD00B583B0B8
:1015F00001918368002B04D0C36801A9984703B008
:1016000000BD25F047FFF0B58BB006000023019325
:101610000293037C002B3BD0C06800F0D9FA8368AA
:101620000193C468029B9C421AD0002C02D06368CC
:1016300001336360029D002D11D06B68013B6B602C
:10164000002B0CD12B689B6828009847AB68013BA6
:10165000AB60002B03D12B68DB682800984702940D
:10166000337C002B16D0F06800F0B2FA4368039385
:101670003836019B0493029B0593002B02D05A68D5
:1016800001325A60039B0693B0693700183704E0B3
:1016900044F0D6FE44F0D4FE28680500874225D0E9
:1016A0000830049B0793059B0893002B02D05A68CF
:1016B00001325A60069B099307AA3100FFF796FF93
:1016C000089C002CE8D06368013B6360002BE3D1E9
:1016D00023689B6820009847A368013BA360002B08
:1016E000DAD12368DB6820009847D5E7059C002CF9
:1016F00011D06368013B6360002B0CD123689B68A9
:1017000020009847A368013BA360002B03D1236806
:10171000DB6820009847029C002C11D06368013BD5
:101720006360002B0CD123689B6820009847A36856
:10173000013BA360002B03D12368DB68200098479E
:101740000BB0F0BDF0B583B0070001911600FFF7B4
:10175000C7FD00F03DFA0400002E2CD08368002B5A
:1017600029D012F05BFD3389002B1ED06368002B5B
:1017700028D0238861688AB29B1A9BB235899D4222
:1017800000D91D00A3689C46614400232A00300054
:1017900007F0A8F863689C466044606029000198DF
:1017A00007F018FC3389AB4212D063682268934279
:1017B00012D3002004E0012149423800FFF72EFE39
:1017C00003B0F0BD22680021A06804F037FED0E726
:1017D000300006F06DFEE8E73800FFF714FF002345
:1017E00063600020ECE700B583B001918368002BB3
:1017F00004D0C36801A9984703B000BD25F04AFE94
:10180000F8B5037C002B00D1F8BD06001436C7687C
:10181000B4692C30050006E0200008303A003100A1
:10182000FFF7E1FF2468A542F6D1EDE7F8B5060021
:101830000C00151E36D1002934D0334F1122334904
:10184000380030F03DF83B680C3B1868C019C76F92
:10185000002F4DD03B7F002B4CD02723F95C2A482A
:101860002FF0BEFF2FF038FF21003000FFF74CFDB6
:101870003100200007F00AFC2549200007F018FC81
:101880002449200007F006FCC8222349200007F065
:1018900033FC2249200007F019FC3000FFF7B0FFAD
:1018A0002800F8BD184C12221D49200030F008F81D
:1018B00023680C3B18680019C46F002C0CD0237FE0
:1018C000002B0BD02723E15C0F482FF089FF2FF06E
:1018D00003FF06204042E4E725F032FD200019F026
:1018E00087FB23689B690A21200098470100EBE7EA
:1018F00025F026FD380019F07BFB3B689B690A2127
:10190000380098470100AAE7DC760020B4530510A0
:10191000F112001045170010A1140010251400103A
:10192000A0530510F8B50400264B0360264B08337E
:1019300003600026866006740500143503001C331E
:101940004361224A11000F3900232800FEF79CFD55
:1019500027002C370C220021380004F06FFDEF61C6
:10196000AF612E62243523004033A363184A11006F
:101970000D3900232800FEF787FD24370C220021B3
:10198000380004F05BFDEF61AF612E6211480EF08C
:101990001FFE051E11D0104E2322104930002FF0DB
:1019A0008FFF2900300030F099F901220C492FF007
:1019B00087FF002323712000F8BD0EF0E9FD01230D
:1019C0002371F8E71454051024540510D75305105B
:1019D000E5530510444B0000DC760020E853051069
:1019E0008011091070B504000D00002383608B681E
:1019F000002B05D002229847EB68E360AB68A36038
:101A0000200070BD30B593B004000D00110004A893
:101A1000FFF750FD089504A90DA8FFF74BFD089BA3
:101A2000019311930DA909A8FFF780FD2C3418200C
:101A300004F010FD050002940390083009A9FFF797
:101A4000D1FF002303932100280013F09DF9A36820
:101A50000133A3600B9B002B03D0032209A90800CC
:101A600098470F9B002B03D003220DA9080098472D
:101A7000069B002B03D0032204A90800984713B04B
:101A800030BD10B582B0019100928268002A05D065
:101A9000C4686A4601A9A04702B010BD25F0FAFC4F
:101AA00000B583B0130000680092019109680269D3
:101AB000FFF7E7FF03B000BD10B502490120FFF7B3
:101AC000D5FA10BDFFFF0000F8B5040016000B6842
:101AD000C3604D6803699D421AD0002D02D06B6827
:101AE00001336B602769002F11D07B68013B7B605D
:101AF000002B0CD13B689B6838009847BB68013BC2
:101B0000BB60002B03D13B68DB6838009847256138
:101B100066600023A360F8BD10B51400096892B296
:101B2000406A01230AF03AF9200010BD70B50400A4
:101B30000D00FFF78FFA084B2000083308C0102271
:101B4000002104F07BFC200014301022002104F05E
:101B500075FC6562200070BD3C54051070B5040032
:101B6000184B08330360056A002D11D06B68013BE8
:101B70006B60002B0CD12B689B6828009847AB68E2
:101B8000013BAB60002B03D12B68DB682800984732
:101B90002569002D11D06B68013B6B60002B0CD1C7
:101BA0002B689B6828009847AB68013BAB60002B13
:101BB00003D12B68DB68280098472000FFF750FA14
:101BC000200070BD3C540510406A704714307047C7
:101BD000043070477047FEE770B50400154A831C57
:101BE0009B00D318586853680025002600E0DB6A84
:101BF000002B14D05A6A002AF9D1DA69511CA94283
:101C0000F5D92921595C0029F1D1D2B20132D5B2DE
:101C1000A11C8900074A521853600126E7E7002EED
:101C200007D00234A400034B1C1960682923012249
:101C3000C25470BD98390120036B002B0DD0C16ACE
:101C4000D962C36A002B01D0016B19631368C362A8
:101C500018630023036310607047C36A0B60F0E7EA
:101C600010B503490A0008320431FFF7E5FF10BD43
:101C70009839012010B503490A1D0831FFF7DCFF30
:101C800010BDC046983901200438704710B562B6BF
:101C9000006800F02DFB10BD10B50400006AFEF7CF
:101CA000EFFB2000FEF7ECFB10BD000030B585B067
:101CB00002AA0D4B12CB12C200230193FFF7E4FFDF
:101CC00005000024012C0DD8A30002AA995801AAEE
:101CD0002800FFF7B1FF0198002801D10134F1E796
:101CE000FFF7DAFF05B030BD7454051010B500F0F1
:101CF00021FB02308000024B1818406810BDC0461E
:101D00009839012010B5074804F04CFD72B6002048
:101D1000FFF762FF040000F0E3FA2000FFF7B6FFD0
:101D2000FEE7C0464C540510F0B589B00E00150012
:101D30001F000F9C14220100684604F085FB0597E4
:101D40000E9B0793069532000021180004F076FBE5
:101D5000194B5B68002B00D01C63E362164D6C606E
:101D60006A46043410008AC88AC48AC88AC40AC869
:101D70000AC4D1696B68043E8E191E606B681868CE
:101D8000042205A904F060FB6B681868109900F044
:101D9000ABFA6A6813683C3B1360686800234362CF
:101DA000036329228354013A83542B6801332B6047
:101DB000043009B0F0BDC04698390120F0B587B0B5
:101DC00005900D0016001F000800FEF755FB0400EB
:101DD0003420FEF751FB00280FD0002C0DD00C9BB7
:101DE0000293019000943B00320029000598FFF710
:101DF0009BFF0400200007B0F0BD002801D0FEF7D3
:101E00003FFB002CF6D02000FEF73AFB0024F1E760
:101E100030B589B0114B00221A605A609A60DA60BE
:101E20000F4B104A1A600024002C01D009B030BDBD
:101E3000002503951022002104A804F0FFFA2200D7
:101E4000094903A803F076FD80210095074B002285
:101E5000C90003A8FFF7B2FF0134E5E79839012074
:101E6000588D0020548D002064540510D71B00109D
:101E700010B572B6002803D0FFF718FF62B610BD88
:101E8000FFF734FF0430021C074800688546101C29
:101E9000FFF70CFF00F04EFAFFF79EFE62B60068F7
:101EA00000F026FAEAE70000588D002010B5FFF791
:101EB0001DFF043010BD007E7047000072B600B5F3
:101EC000FFB44046494652465B4664461FB4EFF3B2
:101ED0000080EFF3148103B4FFF708FF00F018FA55
:101EE000074800688546FFF701FF29230022C254F6
:101EF00000F020FAFFF770FE62B6006800F0F8F913
:101F0000588D002070B50500FFF7F0FE0400456213
:101F1000FFF7A6FEFFF7D2FF2823E05C0022E25481
:101F200070BD000010B5084B986802E0013B4362A9
:101F30002000002806D0C46A436A002BF6D1FFF7C0
:101F400099FEF5E710BDC0469839012010B5FFF79E
:101F50009BFE0023436228330122C25410BD0000BF
:101F600072B6024A1368013313607047887C002000
:101F7000034A1368013B1360002B00D162B670471F
:101F8000887C00200830002205E0DB6803600BE05D
:101F900018000C301A000368002B05D08B42F7D1D3
:101FA000002AF2D0DB68D36070470EB410B583B05E
:101FB00005AB1B7806AA0192002B09D0012B11D08A
:101FC0000022C260037003B010BC08BC03B0184705
:101FD00001990A1D01920C684460043201924A681A
:101FE0008260EDE701990A1D01920C684460043299
:101FF00001924A680272E3E710B50378002B03D020
:10200000012B05D0002010BD4068FFF754FFFAE710
:10201000007AF8E770B504000E000800FFF7ECFF47
:102020000500A068002803D0FFF7E6FFA84203D20E
:10203000A368F360A66070BDA46800E01C002000E7
:10204000FFF7DAFFA84202D9E368002BF6D1E66079
:10205000F1E710B50B78002B03D0012B0AD000203C
:1020600010BD8B68002B00D01A604868FFF76EFF28
:102070000020F5E74B68110098470120F0E70000C9
:10208000002805D0002904D001600023836003717B
:102090007047014B0360F8E77C540510F8B5040065
:1020A0000D0017001E00FFF701FF02003B0000219A
:1020B0002800FFF77AFF050001002000FFF7AAFFC4
:1020C0003000FFF71FFF060029002000FFF75AFF2E
:1020D0003000F8BD70B505000E008468002C04D0F7
:1020E0000379002B0BD0012B06D070BD32002100EC
:1020F0002800FFF7AEFFE468002CF7D1F5E73200C7
:1021000021002800FFF7A5FF0028F8D1EDE7000027
:1021100070B504000E00150000280CD00830002215
:102120000549FFF7ADFF2000143000220349FFF7F7
:10213000A7FF6660256070BD8C540510985405108B
:1021400010B5040013000268002A0DD0FFF708FF45
:102150002368013B2360200014302100FFF7BAFF01
:10216000FFF706FF012010BD08300022FFF796FFA1
:102170000028F8D02368013B2360F4E710B5040081
:1021800013000268406882420DD2FFF7E9FE23681F
:1021900001332360FFF7ECFE200008302100FFF739
:1021A00099FF012010BD200014300022FFF776FFB8
:1021B0000028F7D0236801332360EDE710B500282D
:1021C0000BD0002909D001600261C3600023436085
:1021D000836014301100FFF79BFF10BD70B584B011
:1021E00004000D00002821D0002921D014306946B8
:1021F000FFF7A6FF061E02D1300004B070BDFFF746
:10220000AFFEE0686368584323689C466044E26818
:10221000290004F019F9636801336360226993426D
:1022200001D300236360FFF7A3FEE5E70026E3E7A1
:102230000026E1E770B584B004001600002820D025
:1022400014300A006946FFF799FF051E02D12800E5
:1022500004B070BDFFF784FEE168A36859432368AA
:102260009C466144E268300004F0EEF8A368013354
:10227000A3602269934201D30023A360FFF778FE95
:10228000E5E70025E3E7000010B5052002F028F996
:10229000FA21890003F0E2FB0138014B186010BD00
:1022A00014E000E010B50A4C00232360094A1360D3
:1022B000FFF7EAFF07232360074A1168FF231B0685
:1022C0000B43136001200549404211F0BDFD10BDD4
:1022D00010E000E018E000E020ED00E0192300101D
:1022E00010B5FFF7DFFF10BD203801607047C04612
:1022F0008546C04603BC80F3008881F314881FBC68
:102300008046894692469B46A446FFBC00BDC04617
:10231000694601607047C046FFB400B5FFF702FE92
:1023200003490968096801BC8646FFBCC6E5000090
:1023300054150020D0231B061868704710B5830081
:10234000084A944663441C6840226240C0241440FA
:102350008022520113431C60C000034B9C46604422
:10236000416010BD04C001400040014080000B4BA3
:102370009C46604400290DD00823002A0CD004227A
:102380001343026853400C22134080225201104331
:10239000036070470023F0E70022F1E704C001402A
:1023A000002909D08000094B9C46604480239B0192
:1023B00018430223036070478000044B9C4660442E
:1023C000C0239B01184302230360F4E704C00140CB
:1023D00070B5D0231B061B689D00094C2C59204268
:1023E00007D19B002043064C18510D2000F0D0F976
:1023F00070BD044B044ACC21044802F04FF9C0469A
:1024000050370120A454051068550510D05405100C
:1024100010B50400D0231B061B689B000A4A9B587A
:1024200018420BD00D2000F0CDFAD0231B061B68FC
:1024300005499B005A58A2435A5010BD034B044A09
:10244000D621044802F02AF950370120185505100A
:1024500044550510D0540510072303409B00C008C5
:1024600099403C308000014BC15070470040014012
:10247000F8B507000C0016001D00FFF7EDFFFB0884
:102480009B00ED180720384080008440002E04D0C7
:1024900080239B011D432C60F8BDC0239B011D437D
:1024A0002C60F9E710B5D0231B061B68002B03D066
:1024B000024BFFF7DDFF10BD014BFAE73041014051
:1024C0000041014010B501238340D02212069362DF
:1024D00093610521FFF732FF10BD0000034B1B681D
:1024E00002201840431E9841C0B2704700C0064009
:1024F000EFF3108072B6034B1B68002BFBD0BFF3C9
:102500005F8F70472C0100D0BFF35F8F024B00221A
:102510001A6080F3108870472C0100D0F8B50600CF
:102520000C001500FFF7E4FFE308F718F15C072241
:102530002240012393400B4205D1DBB20B433B7099
:10254000FFF7E2FFF8BD2100280002F041F9F0B5E5
:1025500083B00600019114001F00FFF7C9FF00E0DF
:102560000134BC420CD8E308F518F35C0721214084
:1025700001228A401A42F3D1D2B21A432A7001E0F2
:1025800001246442FFF7C0FF002C02DB200003B0EF
:10259000F0BD019B002BF9D0089802F019F900005A
:1025A00070B505000C00FFF7A3FFE308EE18EA5C26
:1025B00007210C400123A340134204D09A433270F8
:1025C000FFF7A2FF70BD034B034A2C31034802F012
:1025D00065F8C0469C55051008560510BC550510F9
:1025E000002307E0054A9A189200BFF35F8F00218D
:1025F000116001331F2BF5D97047C04640000034ED
:10260000054A1078431CDBB21370172B02D9130054
:1026100010221A707047C04658150020074B9B685F
:10262000103080001950BFF35F8FBFF35F8F044BF2
:102630000021196082F310887047C04600ED00E069
:10264000240100D01F23181A7047000010B5091A82
:10265000081F0A4B9C466144094A914208D8C307A7
:1026600006D440104005400D064B184380B210BD03
:10267000054B064AA321064802F010F8FC070000AB
:10268000FE0F000000E0FFFF1856051090580510DF
:102690004856051010B5091A04394C08090B08D121
:1026A0004905490D064A11430180064B23434380E7
:1026B00010BD054B054AAB21054801F0EFFFC046B0
:1026C00000F0FFFF00F8FFFF90560510645805105A
:1026D0004856051001238340034A10681840431EE2
:1026E0009841C0B27047C04600E100E0002904D024
:1026F000034B1860034B18607047034B1860FBE7EF
:1027000080E200E000E100E080E100E010B501239C
:1027100083401800FFF7EAFF10BD0000012383404B
:10272000014A13607047C04600E200E0024B9B681C
:1027300010308000C058704700ED00E070B5040014
:102740000D00EFF3108672B60C4B1B68002BFBD00C
:10275000BFF35F8F2000FFF7E9FF094B984201D0DC
:10276000A84205D1320029002000FFF757FF70BDB5
:10277000044B054A8621054801F090FF240100D052
:10278000CD010010A0560510C4580510485605107C
:10279000F0B5DE4657464E464546E0B589B081461F
:1027A00001911500EFF3108A72B6744B1B68002B71
:1027B000FBD0BFF35F8F724B0027DF57002F40DB4A
:1027C0007C00E419A4006F4824180622A2566C4B22
:1027D0001A706D4B9A684B4610339B00D35898463D
:1027E0001E001B1A2F2B38D9684B98452FD105AEE8
:1027F000674B33807B009B46D8198000614B98461D
:10280000404402306349FFF721FF7080624BB38080
:10281000FF23B371F571019B07935F44BF004744E9
:102820000ECE0EC701231C43A046524641464846E1
:10283000FFF7F4FE09B0F0BCBB46B246A946A0467D
:10284000F0BD564B564AD721564801F027FF564B4C
:10285000534ADE21534801F021FFC04340440C217C
:1028600003F0FCF8002912D101239E43B346330044
:102870000026DA79AA4211D90621595600290CDB23
:102880004A00521892001E003E4B9B18F1E7474B3E
:10289000434AEA21434801F001FF1E00002E3AD0CE
:1028A00005AB434A1A80813A5A800623F3560293B5
:1028B000002B17DA3F4805AB9B469880029A9A7125
:1028C000DD71019A0792301D2100FFF7BFFEB08035
:1028D000B7717B00DB199B002A4FFF185B4607CBC3
:1028E00007C7A2E77800C0198000264BC018043043
:1028F000321DB388D90A1C2907D15B05591502314D
:1029000049005118FFF7A2FED5E72B4B2B4AB12106
:10291000244801F0C3FE05AE1D4B33807B000293BB
:10292000D8198000174A9046020042440392901C36
:102930001849FFF78BFE7080039A101D5946FFF768
:1029400085FEB0801E4B5A464146521A52415343AF
:102950001B0DB371F571019A0792029B9C46674467
:10296000BF0047440ECE0EC7114B5A461380813B21
:10297000538001231C43A04657E7C046240100D0E2
:10298000F83901205C15002000ED00E0CD010010B9
:1029900000A1FFFF8C15002001BDFFFFD8560510D8
:1029A000AC5805104856051000570510285705105B
:1029B0000148000001BD00009C5705109C580510FF
:1029C000AAAA0000F0B5CE46474680B583B00600FF
:1029D0000D00EFF3108872B6564B1B68002BFBD02E
:1029E000BFF35F8F544B9A6834001034A300D7585C
:1029F000524B9F4207D0AF4200D198E00197504B15
:102A0000FB1A2F2B09D9424639003000FFF706FE8A
:102A100003B0C0BCB946B046F0BD3000FFF75AFE67
:102A2000814600213000FFF771FEBFF35F8FEFF3A7
:102A30000581002901D08C4211D10123019C9C43C6
:102A40000022A368AB4212D00622A256002A0DDB58
:102A500053009B189B002200394CE418F1E7362103
:102A6000384B394AFF31394801F018FE2200AB4299
:102A700056D106256557002D38DB6B005B199A008F
:102A80002F4B9B189A68A260DA79E27106229A5657
:102A9000A2719B795BB2002B0FDA2D48A0806B00EE
:102AA0005B199B00264AD3182A4A11789971157030
:102AB00049463000FFF72AFEA5E7201D6B005B1991
:102AC0009B001F4A9B181A1D9B88D90A1C2907D1F5
:102AD0005B055B15023359005118FFF7B7FDDDE7C1
:102AE0001D4B1E4AB121194801F0D8FD002912D111
:102AF000002A0ED0FF239371194B9380154A137847
:102B0000A371184B0E49641A644163431B0D137083
:102B1000CEE70A4FF2E7201D1349FFF7BBFDC7E7D9
:102B20006A21124B084AFF31084801F0B7FD034FF4
:102B300069E7C046240100D000ED00E0CD0100109F
:102B40005C150020B45705107C5805104856051038
:102B500001BD0000F83901209C5705109C58051054
:102B600001BDFFFFAAAA000096150020E857051036
:102B700010B5032304009C43064A9446644422682B
:102B80001840C000FC3383409A43130081400B433C
:102B9000236010BD00E400E070B5012101432E4B1D
:102BA000CB1A2F2B28D8EFF30583002B2BD0EFF374
:102BB000108C72B6294A1268002AFBD0BFF35F8FCF
:102BC000274A0400244D641B64416243120D54B231
:102BD000244A92689B00D2588A421BD00022032AC2
:102BE00032D853009B189B001B49CB189B795BB2D2
:102BF000A3421FD00132F2E7C7211B4B1B4A4900F9
:102C00001B4801F04BFD92211A4B184AFF3118481E
:102C100001F044FD134A92681749D150174B1A78B6
:102C200082711C70BFF35F8F0C4B00221A608CF313
:102C3000108870BD0D005300991889006918FF268F
:102C40008E710F4A8A80E9E7D1210E4B074A49006D
:102C5000074801F023FDC0465C150020240100D088
:102C6000AAAA000000ED00E0F05705104858051032
:102C70004856051018580510CD010010F8390120EC
:102C800001BDFFFF245805100022044B02E0044957
:102C900002C30132072AFAD97047C04600E400E0B7
:102CA0008080808010B5FFF7CDFC01000148FFF760
:102CB00077FC10BD013A012000B583B00100064B3E
:102CC0000093052300220548FFF741FC002801DBA3
:102CD0001F23181A03B000BD2C580510013A01201B
:102CE00070B504000E001500FFF78AFC01002000FB
:102CF00000F006F8A680E580BFF35F8F70BD00008E
:102D0000024B9C46614489000160704740000034DA
:102D100010B50400FFF774FC01002000FFF7F0FF7E
:102D2000FF232371BFF35F8F10BD10B50400FFF7C1
:102D300067FC01002000FFF7E3FFFF23237100235E
:102D40006371BFF35F8F10BD70B505000C00080004
:102D500000F0C4FF0949200000F004FFFFF750FC19
:102D6000074B9C466044800068602C75D0231B068E
:102D70001B786B75A400034BE55070BD8D300010BF
:102D800040000034802701200A4B1A68EFF31081BD
:102D900072B61368002BFCD0BFF35F8F054B1B6826
:102DA000BFF35F8F00221A6081F3108840BF0020BC
:102DB000002170477439012010B5002922D0036822
:102DC0001B7B99421ED8174B9C46614409018368BE
:102DD0009C4661440C684968002A19D003681B7B33
:102DE0009A4215D883680F488446624412019A18A3
:102DF00010685368020001208B4201D80ED00020D9
:102E0000C0B210BD084B094A3C21094801F046FCFC
:102E1000054B064A3C21064801F040FCA242EFD88F
:102E2000EDE7C046FFFFFF0FB05A0510445D0510E7
:102E3000705A051010B500291ED0037B99421BD88B
:102E40004B005B18033B0468A4466344002919D077
:102E5000002A1DD0914221D0002A25D0047BA24215
:102E600022D804685000801803382018817019781F
:102E700000291FD11A7010BD104B114A682111484A
:102E800001F00CFC104B114A6F310E4801F006FCAA
:102E90000F4B0E4A70210B4801F000FC0D4B0B4A02
:102EA0007121084801F0FAFB044B054A68210548E6
:102EB00001F0F4FB41701A70DDE7C046D45A0510EA
:102EC000C45D0510F05A0510445B0510A05D0510A7
:102ED000505B05105C5B051070B506000D0014001A
:102EE000002914D0002A14D08068736898470028FD
:102EF00006D0220029003000FFF79CFF280007E0E1
:102F00002A0021003000FFF795FF200000E01000AC
:102F100070BD0800FCE70000F0B583B0050000922A
:102F200001930AAB1C780BAB1F78002C26D00368EA
:102F30005A7B944207D10123002B19D1002C3BD19D
:102F4000200003B0F0BD002C0CD01A7B944209D8AD
:102F50001A6863001B19033BD3189B78002BEBD036
:102F60000123E9E73E4B3F4A68213F4801F096FBC9
:102F70003E4B3F4A67213F4801F090FB03689C7B32
:102F8000002CDBD012D01A7B94420FD862001219A9
:102F9000033A19688C46624451789973002900D12C
:102FA000D9730023937053701370C7E72C4B2D4ACD
:102FB00068212D4801F072FB002C3AD02B681B7B56
:102FC0009C4236D82C4BE3181B01AA6894466344F4
:102FD000009A1A60019A5A60089A9A60099ADA600F
:102FE0002E68002C2BD030D0337B9C422DD8630030
:102FF0001B19033B32689446634400229A705A704E
:103000001A70717B22003000FFF766FF70738442F4
:1030100000D095E7287D009A019B00F0EBFD061E8D
:1030200001D0002F17D00C9B002B00D188E71E7019
:1030300086E7124B124A3C210E4801F02FFB114B40
:10304000114AA521084801F029FB054B054A6821D2
:10305000054801F023FB2868210001F041F8E2E770
:10306000D45A0510C45D0510F05A0510745B0510A4
:10307000D05D0510705A0510FFFFFF0FB05A051004
:10308000445D05106C5A0510B45D0510F0B5DE46C0
:1030900057464E464546E0B58BB00990002308934D
:1030A0008200B54BD658370052E0B44BB44A3F21AA
:1030B000B44801F0F3FAB44BB44A3C21B44801F0EF
:1030C000EDFA002901D1002869D10021404600F025
:1030D000FDFFA04219D12A686B6806920793AB687E
:1030E0009846EB689A464346002B14D0002C18D023
:1030F0003B681B7B9C4214D8631EFA68D35C089320
:103100001B0218433861002015E0A24BA24A8E2111
:103110009F4801F0C3FAA14B9F4A92219C4801F0BD
:10312000BDFA994B9E4A4121994801F0B7FA002314
:103130009A46984600207B68BFF35F8F00221A6092
:1031400086F310884346002B32D1002800D10CE1D1
:1031500000F0C4FC02000B1EA7DB0020002106903B
:1031600007917868EFF3108672B601680029FCD0E9
:10317000BFF35F8F396888464C7B002CD7D09AD03C
:10318000097B8C4297D8874965182D01B9688C4610
:10319000654428686968801A9941002991DD2A6888
:1031A0006B68099800F026FD00239A469846C2E70E
:1031B000089B1B022343994651461800C04705004F
:1031C0000E007A68EFF3108B72B6136859424B41C8
:1031D000D9B2002BF9D1BFF35F8F002E1EDB002E7A
:1031E00046DD3B69002B47D04B456DD100F076FCA6
:1031F00002000B1E6EDB52197341002B70DB002B9B
:1032000072DB002104910131039102945146019136
:10321000414600913800FFF77FFE4CE03B69002BF0
:10322000DDD04B4514D1069A079B521BB341002BAE
:1032300014DB002B16DB0021049101310391029471
:1032400051460191414600913800FFF765FE32E09A
:10325000554B514AA1214E4801F020FA0122524219
:10326000524BE6E7454B464A3F21464801F016FAE5
:10327000002E01D1002DB4D13B68002C50D05A7BD8
:10328000944237D1012100294AD1DA7B002A4DD15D
:103290009A7B002A03D1DA7B002A5AD19C73DC7313
:1032A000002C5CD03B681B7B9C4258D8FA68013CE0
:1032B000135D0133135500233B617A68BFF35F8FC1
:1032C00013608BF3108843E7374B334AA42130480F
:1032D00001F0E4F9294B2A4A3F212A4801F0DEF99E
:1032E00001225242314B8AE7244B254A3F2125488F
:1032F00001F0D4F9002C0DD01A7B94420AD8620058
:103300001219033A1868844662449278002ABAD0A7
:103310000121B8E7264B274A6821274801F0BEF96A
:10332000264B274AF621244801F0B8F9002A0AD092
:10333000197B8A4207D851008A18033A19688C46CB
:1033400062445470A4E71A4B1A4A68211A4801F0E3
:10335000A5F91C4B1A4AFB21174801F09FF90A4BAB
:103360000F4A41210A4801F099F90BB0F0BCBB4665
:10337000B246A946A046F0BD80270120405905105D
:10338000105D05105C590510B05A0510445D05101C
:10339000705A05109C5B0510285D0510B45B051084
:1033A0007C5D0510FFFFFF0FC05B0510FFFFFF7F77
:1033B000D45A0510C45D0510F05A0510FC5B0510C9
:1033C000905D0510205C051010B50C4B5B68002B60
:1033D00004D00A210A48FFF793FC10BD074C2300D4
:1033E000084A1021206800F063FD032000F052FB22
:1033F00003212000FFF7A8FCEBE7C046A41500203E
:1034000074390120B92D001010B5064B5B68002BF4
:1034100001D0044810BD044B044A5E21044801F069
:103420003DF9C046A4150020345C0510645D05100C
:10343000705A051070B50500182002F089FF0400CD
:1034400002000C49280000F03AFD206010212800FD
:1034500002F09CFFA0600121280002F097FFE060CD
:10346000012000F02BFB01002000FFF76DFC200085
:1034700070BDC046B92D001010B50400164B98421F
:103480001DD0037D9900154A8A5882421DD19B00A8
:10349000124A00219950006800F027FD207D00218C
:1034A00000F060FB207D00F001FBE06802F0AEFF61
:1034B000A06802F0ABFF200002F0A8FF10BD084B8F
:1034C000084AD321084801F0E9F8084B054AD721FA
:1034D000054801F0E3F8C046A4150020802701202C
:1034E000E8570510505D0510705A0510585C05101E
:1034F000F0B5DE4657464E464546E0B58BB08046B1
:1035000016001F00149B9A46159B994616AB1B7814
:103510009B461F2302AA9446634400221A702BE0A4
:10352000002809D042461268127B904204D8421EFD
:103530004146C9688A5C41E0404B414A41214148CB
:1035400001F0ACF807984CE0361BAF41002F07DBC9
:10355000002F11DA3C4B3D4A3F213D4801F09EF8D7
:10356000012676423B4FF3E7374B384A3F21384834
:1035700001F094F8002F4FDB43465A68EFF31084B4
:1035800072B6136859424B41D9B20791002BF8D15A
:10359000BFF35F8F1F3302AA944663440493002352
:1035A000039302934B4601935346009332003B0032
:1035B0004046FFF7B1FC031EB2D102004146496804
:1035C000BFF35F8F00250D6084F31088002B29D096
:1035D0001F2302A98C4663441B78002BB2D1120230
:1035E0001043002B20D05B46002B1DD04946D0470E
:1035F00004000D0003000B431DD00029A4DB00F0E4
:103600006DFA06000F1EAFDB36196F41002FB1DADD
:10361000012676420F4FADE70B4B0C4A3F210C4879
:1036200001F03CF8012040420BB0F0BCBB46B24672
:10363000A946A046F0BD0798F6E7C046B05A051067
:103640007C5D0510705A051040590510105D05107D
:103650005C590510FFFFFF7FF0B589B005001F2101
:103660006944002008706868EFF3108772B601683B
:103670000029FCD0BFF35F8F1F2169440491012111
:103680000391002102910F9901910E990091280058
:10369000FFF742FC0400031E12D106006A68BFF364
:1036A0005F8F0021116087F31088002B1CD01F232F
:1036B0006B441B78002B13D13002204309B0F0BDBE
:1036C000002807D02A68127B904203D8421EE9687E
:1036D0008E5CE3E7064B074A4121074800F0DEFF16
:1036E000287D00F01BFBE7E701204042E6E7C046EB
:1036F000B05A05107C5D0510705A0510F8B504002D
:103700004268EFF3108572B6136858424341D8B24D
:10371000002BF9D1BFF35F8FCBB22268567BB34247
:103720001BD10120002848D0206988422BD0090AEB
:10373000C9B2002B2ED02068007B83422AD8581EA5
:10374000E668305C88422BD000206368BFF35F8F4F
:1037500000221A6085F31088F8BD002B0DD0167B6F
:10376000B3420AD85E00F618033E1768BC466644AA
:10377000B678002ED6D00120D4E7134B134A682127
:10378000134800F08BFF9521124B134A4900134850
:1037900000F084FF124B134A4121104800F07EFFD5
:1037A0001900100000F09CFC0028CED132210E4BF5
:1037B000094AFF31094800F071FF23698B42C4D1E7
:1037C00000232361C1E7C046D45A0510C45D05102B
:1037D000F05A0510805C0510F85C0510705A051051
:1037E000B05A05107C5D0510A45C0510407D704743
:1037F000F0B587B006000F00EFF30583002B1FD153
:1038000006246442E517A4197D418D4202D803D1F4
:10381000844201D900240025002D14DB0494059571
:1038200000F05CF902000B1E13DBA41A9D41002D71
:1038300017DC14D03000390000F05CF907B0F0BD9F
:10384000234800F0C5FF234B234A3F21234800F0C3
:1038500025FF204B204A3F21204800F01FFF002C6D
:10386000E8D0FFF7D1FD0023029301931C4B009396
:10387000049A059BFFF73CFE002818DADAE70023DC
:1038800000E00023002BD5D1164B1A68EFF310810E
:1038900072B61368002BFCD0BFF35F8F114B1B680F
:1038A000BFF35F8F00221A6081F3108820BF049954
:1038B000059A0D4B5B6A9A42E3D80B48806A8842AE
:1038C00003D29A42DBD00123DCE70123DAE7C046CA
:1038D000A85C051040590510105D05105C590510D5
:1038E000892D0010743901200040054070B5040096
:1038F0000D0000F0F3F802000B1E0ADB2000290087
:103900008018594100290ADB00290CDBFFF770FF02
:1039100070BD084B084A3F21084800F0BFFE012057
:1039200040420749F0E7034B034A3F21034800F0B8
:10393000B5FEC04640590510105D05105C590510D4
:10394000FFFFFF7F10B5FA2292000023002102F052
:1039500057FCFFF7CBFF10BD70B584B005000C001D
:10396000EFF30583002B1ED1FFF74EFD00230293DA
:103970000193224B00932A002300FFF7B9FD061E96
:1039800023DD20BFFFF740FD3100FFF7B7FE1C4BE2
:103990005B6A9C422DD81A4A926AAA422CD29C4257
:1039A00025D0012026E0164B5B6A994209D8144ABB
:1039B000926A824207D2994201D001201AE0002087
:1039C00018E0002016E0012014E00D4B5B6A9C42D9
:1039D00009D80B4A926AAA4207D29C4201D0012020
:1039E00008E0002006E0002004E0012002E00020C2
:1039F00000E0002004B070BD0120FBE7892D00101D
:103A00000040054070B5EFF305801038EFF3108CDF
:103A100072B61A4B1B68002BFBD0BFF35F8F0122DD
:103A20001300834016494B6316490B601649097809
:103A30000C00C440224214D0114A546A8200134D33
:103A40005259944206D38200114C125999430E4B9D
:103A5000197007E00A4A031D9B00995899500022EB
:103A600000E00022BFF35F8F044B002119608CF34C
:103A70001088002A00D0904770BDC046280100D0B1
:103A8000004005403C700540003A01208839012083
:103A9000307A002010B50100024A0348FEF73EFDCF
:103AA00010BDC046F05D0510F239012010B50100CF
:103AB0000148FEF775FD10BDF239012000B583B055
:103AC0000100044B0093032300220348FEF73FFD4F
:103AD00003B000BD145E0510F2390120044B5B6A8F
:103AE000034A906A1900536A9942F9D17047C04657
:103AF00000400540084B5B6A01E0074B5B6A8B4264
:103B0000FBD301E0044B5B6A8B4203D1024B9B6AFF
:103B10008342F7D37047C0460040054070B50400AB
:103B20000D00FFF7DBFF02000B00200029008018CA
:103B300059418B4202D804D1824202D9012040422D
:103B4000C117002902DBFFF7D5FF70BD024B034A06
:103B50003F21034800F0A2FD40590510B45E051056
:103B60005C59051070B504000D00EFF3108672B6B5
:103B70001B4B1B68002BFBD0BFF35F8F002D1CD0AD
:103B80002000FEF7D3FD174B83420BD01900200015
:103B9000FEF7D4FD01212000FEF7B8FD0123A3406C
:103BA000114A1360A400114BE550BFF35F8F0C4B1B
:103BB00000221A6086F3108870BDA2000B4B002112
:103BC000D1500122A2400A490B7893430B7005495A
:103BD0002000FEF7F7FE00212000FEF797FDE4E746
:103BE000280100D0053A001038600540307A0020E6
:103BF000003A0120F0B5DE4600B584B0040015009F
:103C000001921E000293FFF769FF03958E4202D8CE
:103C10004ED185424CD9EFF3108B72B6274B1B68FF
:103C2000002BFBD0BFF35F8F254A17780125A540F5
:103C3000EBB23B431370234B5D63221D920001994D
:103C4000D150A2002049029850501B6A2B4212D139
:103C50001C4B1B6C2B4208D00020BFF35F8F174B0F
:103C600000221A608BF3108823E0184B184AC521F4
:103C7000184800F013FDFFF731FF8E4214D802D12F
:103C8000039B834210D80E4B1B78BB420ED00D4BCA
:103C90001D625D631F2004400123A3400E4A136090
:103CA000074B1F701E38D8E70020D6E70120D4E765
:103CB000012004B080BCBB46F0BDC046280100D046
:103CC000003A01200040054088390120285E051097
:103CD000985E05104C5E051080E200E0EFF3108C5A
:103CE00072B60B4B1B68002BFBD0BFF35F8F012319
:103CF0008340084A136208490A789A430A70BFF35E
:103D00005F8F034B00221A608CF310887047C04607
:103D1000280100D000400540003A0120EFF3108C4C
:103D200072B60B4B1B68002BFBD0BFF35F8F0123D8
:103D30008340DAB20749087802430A70BFF35F8F05
:103D4000034A002111608CF31088034A1360704706
:103D5000280100D0003A01203C60054010B5002940
:103D60001ED0037B99421BD84B005B18033B0468B1
:103D7000A4466344002919D0002A1DD0914221D0C5
:103D8000002A25D0047BA24222D804685000801863
:103D9000033820188170197800291FD11A7010BDBE
:103DA000104B114A6821114800F078FC104B114A61
:103DB0006F310E4800F072FC0F4B0E4A70210B4819
:103DC00000F06CFC0D4B0B4A7121084800F066FCBA
:103DD000044B054A6821054800F060FC41701A70E8
:103DE000DDE7C046D45A0510C45F0510F05A05102F
:103DF000445B0510B05F0510505B05105C5B05105F
:103E000070B506000D001400002914D0002A14D04B
:103E1000806873689847002806D022002900300087
:103E2000FFF79CFF280007E02A0021003000FFF781
:103E300095FF200000E0100070BD0800FCE70000C6
:103E400010B50023437301338373037BC3730123D2
:103E5000027B9A4214D9002B0CD0027B934209D8E2
:103E60005A00D218033A01688C4662440133DBB22F
:103E70005370EDE70B4B0C4A68210C4800F00EFC28
:103E8000002A09D0924207D8016853009A18033AD1
:103E90008A180023537010BD024B034A682103485F
:103EA00000F0FCFBD45A0510C45F0510F05A051051
:103EB00010B5017342608360FFF7C2FF10BDF8B513
:103EC00005000E0017001021012002F05FFA040027
:103ED0000321280002F05AFA20603B00320029003A
:103EE0002000FFF7E5FF2000F8BD10B504000068D2
:103EF00002F08CFA200002F089FA10BD70B50400BF
:103F0000081E00D170BD002934D0237B994231D8DE
:103F10004B005B18033B2268944663445A78002A9E
:103F2000F0D02DD0237B9A422AD853009B18033B14
:103F300021688C4663445D7800215970002825D0A3
:103F4000237B984222D843001B18033B21688C46F0
:103F500063440021597001002000FFF751FF060063
:103F600029002000FFF7CAFF020031002000FFF700
:103F700047FFC7E7084B094A6821094800F08EFB54
:103F8000054B064A6821064800F088FB024B034AAD
:103F90006821034800F082FBD45A0510C45F051065
:103FA000F05A051070B505000C00160000292FD03E
:103FB00034D0037B994231D84B005B18033B026835
:103FC000944663445A78002A2ED19A78002A31D137
:103FD0001978FFF793FF0300002E0AD0EA7B002A2E
:103FE0002ED1AA7B002A03D1EA7B002A3BD1AC73F5
:103FF000EC73002B3DD1002C4FD02B7B9C424CD836
:104000002B6861000C19033C1C190023637070BD00
:10401000254B264A3821264800F040FB254B264AEE
:104020006821264800F03AFB254B204A3A212048D7
:1040300000F034FB234B1D4A3B211D4800F02EFBB2
:10404000002A0AD0297B8A4207D851008A18033AED
:1040500029688C4662445470C3E7164B164A68219F
:10406000164800F01BFB184B104A4221104800F084
:1040700015FB002B0BD02A7B934208D843001B185A
:10408000033B2A689446634400229A70B3E7094BC5
:10409000094A6821094800F001FB064B064A6821DD
:1040A000064800F0FBFAC046CC5E05109C5F051088
:1040B000D45E0510D45A0510C45F0510F05A0510DF
:1040C000185F0510405F0510205C051070B50400F6
:1040D0000A00457B2900FFF765FF6073280070BD6B
:1040E00070B50400002967D0437B8B420ED00029B5
:1040F00011D0037B99420ED84B005B18033B02683A
:10410000D0188378002B0CD1002056E00121FFF756
:10411000DDFF012051E0294B294A6821294800F0A0
:10412000BDFA002B20D0227B93421DD85A00D31811
:10413000033B2268D2182568EB5C8B421AD0002B17
:104140001BD0227B934218D85A00D318033B226815
:10415000D21853788B4216D0002BF0D11A4B1B4A41
:104160006B211B4800F09AFA144B154A6821154838
:1041700000F094FA4378137007E0104B104A68215E
:10418000104800F08BFA437853700023837043701B
:1041900001222000FFF706FF0200617B814205D06B
:1041A0002000FFF72DFE6073012006E0094B074A4F
:1041B0007121074800F072FA002070BDD45A051032
:1041C000C45F0510F05A051024580510845F0510CF
:1041D000D45E0510645F051070B504000D00062064
:1041E00000F07EF9C000290001F038FCC60908D0B3
:1041F0000E4B9E4217D87F231840013035004608E9
:1042000000E001256562A6622C3480208001044311
:1042100000232360062000F063F98000A9018919BA
:1042200001F01CFC70BD0026014DEBE7FEFF000015
:10423000FFFF0000002909D00A22064B9C4660447B
:10424000434258414000044BC25270478022520002
:10425000F3E7C0460080FCBFCC39012070B50500F3
:104260000C00062000F03CF9002829D0164B9D4296
:1042700027D08022D203154B1A60154B1A60154BBC
:104280009B6811009943FAD100212800FFF7D2FF63
:1042900021002800FFF7A0FF2C002C34E96A6022DF
:1042A0004A406E21114080225201224311600A4B84
:1042B0002B6380239B01234310221A600323AB64EA
:1042C00070BD80221204D6E70080034000E0004069
:1042D00000F0004000C0004001030000F8B5DE46D9
:1042E00057464E464546E0B505000F0092460A9AED
:1042F00093424ED31A0E91461E020A9A00233000B2
:10430000494601F0E9FB80466C006419A4002F4B7C
:104310009C4664446368834200D260602B1FDBB21A
:104320009B46012B3BD9C0239B01234380221201D2
:104330001A60AB00264A9958002905D0506901F04F
:104340008DFB01300138FDD153465A0123685A4094
:10435000E0231A4080235B0123431A605A46012A56
:1043600028D980239B012343802212011A604346EF
:104370006360424600233000494601F0ADFBAD00CA
:10438000134B58510120F0BCBB46B246A946A0468B
:10439000F8BD104B104A2D21104800F07FF9012F75
:1043A000C1D1C0239B01234303221A60A368DB070A
:1043B000FCD5C9E72168794003220A401A60A26847
:1043C0000123BB401342FAD0CBE7C0460080004037
:1043D000607C0020D05F051030600510E45F0510A0
:1043E00030B583B00C2000F017F9FEF777F80028FD
:1043F0000DD0002304E099002D4A2E488850013347
:10440000092BF8D92A4B2C4A5A6203B030BD2B4BEA
:1044100000229A6700F008F9294B01221A60274B05
:104420005B6C012BFBD1274B03221A60234B9B6B48
:10443000012BFBD1013300930433234A012123488C
:1044400000F054F805230093214A0121214800F08F
:104450004DF8214B0093002202210420FFF73EFF7C
:104460001E4D00952B00002201210520FFF736FF8D
:10447000104C00942300002200210720FFF72EFF9C
:1044800000942300002200210820FFF727FF0A4B99
:1044900000932300002200210920FFF71FFF009551
:1044A0002B00002200210620FFF718FFADE7C046D1
:1044B000607C0020006CDC021BB700000080004024
:1044C0003CB0004030B00040002F685900800240EE
:1044D000008C864700C00240001BB700405973079C
:1044E0008000014BC0587047607C0020F0B5C64684
:1044F00000B504000D00170098460C2001F0AEFA3C
:104500000600394BFA18394B9A4241D843011B1A1D
:104510009901C91AC90009188901380001F09EFAE9
:104520000200103A98235B009A4237D84346013B79
:10453000062B39D8069B013B062B35D83F09B742DD
:1045400038D343461E04069B1A0316432368002BE8
:1045500036DB274B9C4244D080225201254B1A6007
:10456000254B1A60254B9B6811009943FAD12560B1
:10457000A060231DC02292011A43212313602368E7
:10458000002BFCDAE6600823136080BCB846F0BD5F
:104590001B4B1C4A11211C4800F080F81B4B194A88
:1045A0001921194800F07AF8194B164A1C211648AF
:1045B00000F074F8174B134A2321134800F06EF8EB
:1045C00022683F231340AB42C3D1A3681B051B0DD8
:1045D0008342BED1E368EE22D2021340B342B8D187
:1045E000D3E780229201B9E780E84BD380F8A93263
:1045F00000C0024000E0004000F0004000C0004069
:10460000406005106C610510A0600510E8600510A1
:10461000046105105061051080239B000343014A8B
:10462000D362704700800540064BAA2212011A602F
:104630002F22DA60044B054A1A60024B5B68002B9C
:10464000FBDA7047004002400060024000B0FA0010
:1046500000BEFDE703000A4A1268002A08D0084A93
:104660001068C318074A9A4206D3054A1360704778
:10467000034A05491160F2E701204042F7E7C046CE
:104680003C8B002000000420043A012000207047E9
:1046900001204042704710B5FFF7DAFF10B582B035
:1046A0000C001900002A0CD0084B002A0BD00192F4
:1046B000009323000200064802F0A4F80120FFF74F
:1046C000C7FF044BF1E7034AF1E7C04678610510E4
:1046D000886105100C52051070B52B4B2B4A1A60DF
:1046E0002B4B2C4A1A602C4B9A682A4B9343FAD1D5
:1046F0002A4C01E008CC9847294B9C42FAD3FFF79B
:104700006FFE234B274A1A60234B9B68DB43DB0178
:10471000FAD1254B40229A675A671A67DA66234C0A
:1047200009E0234B234A86212348FFF7B7FF2000E7
:10473000FEF7EEFA0834214B9C4209D22368002B85
:10474000F5D0012BEDD12000FEF7EFFA0834F2E7A7
:104750001B4CA1681B4DC022280001F075FEA5600E
:10476000EFF30583002B00D000BEFDF739FFFEF705
:104770008BFAFEF729FE144C01E008CC9847134B46
:104780009C42FAD370BDC04600E00040BFCDFBFEA6
:1047900000F00040FE7F3C0000C0004018210020D7
:1047A00028210020FFFFFF0100F001400821002028
:1047B000B861051044620510D86105101821002069
:1047C00000ED00E0000000202821002058210020FA
:1047D0000FB400B583B0084801F0E4FF049B002B40
:1047E00007D005A90191180001F0ECFF034801F082
:1047F000D9FF0120FFF72CFF24620510801109105A
:1048000010B50148FFF7E4FF346205109A4200D268
:1048100088547047704710B5002802D00B6849686B
:10482000984710BD0100002007E083001B185B00C3
:10483000501C08601078C01830380A681378303B74
:10484000DBB2092BF1D97047F0B5DE4657464E462C
:104850004546E0B583B093461F000C9B9A460D9CDD
:104860000E9B99460F9B9B0703D0B8460F0006008E
:1048700022E00192A34688464E46B9460700B4425C
:1048800007D2551C4B4641462020B84701342A0028
:10489000F5E73D004F465C46019B9B46B1464646C8
:1048A000B84637002E0007E0013C551C5346185D02
:1048B00043463900B0472A00002CF5D135003E00B0
:1048C00047460F9B9B0707D4100003B0F0BCBB46C4
:1048D000B246A946A046F0BDB0464E46B9462F00A6
:1048E0005D46531BB342EFD2541C4B464146202039
:1048F000B8472200F5E7F0B5CE46474680B585B00B
:10490000944698460C9D0D9C0EAB1B789946109AC8
:10491000119B129EB7071CD4002B0CD0F7070AD5A9
:104920004F46002F02D10C37374204D0013B02E042
:1049300030272F550134944201D21F2CF8D9F707A4
:1049400007D59C4205D21F2C03D830272F550134A0
:10495000F5E7F70615D5770505D4002C03D094426A
:1049600024D09C4222D00F9A102A2BD00F9A102AC2
:1049700030D00F9A022A35D01F2C02D830222A5567
:1049800001341F2C05D84A46002A31D02D222A5541
:104990000134039602930194009543466246FFF763
:1049A00053FF05B0C0BCB946B046F0BD621E012C35
:1049B00006D00F9F102F01D01400D4E7023CD2E79D
:1049C0001400D0E7B206D1D41F2CCFD878222A55B4
:1049D0000134D1E7B206CCD51F2CCAD858222A55AB
:1049E0000134C9E71F2CC7D860322A550134C3E708
:1049F000720703D52B222A550134CAE73207C8D5DE
:104A000020222A550134C4E7F0B5DE4657464E460B
:104A10004546E0B593B081468A46089209931CAB9F
:104A200010CB1B789B461E9D219B9846002C03D1E2
:104A3000102342469A4390468023DB0046461E40A0
:104A400042461A4212D0002C22D000260EE030330B
:104A5000D9B2771C0AAB99552900200000F0FEFF5F
:104A6000AC4216D31F2F14D83E00040029002000AA
:104A700000F0F4FFCBB2092BE9D94246920605D5E6
:104A80004121C918C9B20A39C9B2E2E76121F8E780
:104A9000270043460693209B05931F9B0493039591
:104AA0005B46029301970AAB0093099B089A514613
:104AB0004846FFF720FF13B0F0BCBB46B246A946FC
:104AC000A046F0BDF0B5DE4657464E464546E0B539
:104AD00095B0089009910A920B931E9E1F9C20ABE3
:104AE0001B789B46229B9946239D269B9A46330022
:104AF000234303D1103352469A4392468023DB006E
:104B000057461F4052461A4219D0330023432DD036
:104B1000002714E03033DAB27B1C98460CABDA5530
:104B20004A462B003000210000F0D6FFA5421FD8D6
:104B300019D043461F2B1BD8474606000C004A4697
:104B40002B003000210000F0C7FFD3B2092BE1D9C0
:104B50005246920605D54122D218D2B20A3AD2B2B2
:104B6000DAE76122F8E7B145E3D901E0002398468E
:104B700053460693259B0593249B04934B4603932E
:104B80005B460293434601930CAB00930B9B0A9A3E
:104B900009990898FFF7AFFE15B0F0BCBB46B246C6
:104BA000A946A046F0BD0000F0B5DE4657464E4689
:104BB0004546E0B591B083468A460C9298461A9CC9
:104BC00008941B9D099522002B002000290001F06C
:104BD00006FA002800D0E5E001225242D74B20001F
:104BE000290001F0F7F9002800D0DBE00122524251
:104BF000D34B2000290001F0D7F9002800D0D1E0E4
:104C000000220023089E3000099D290001F0CCF904
:104C1000002800D0DDE008980999069007918023CC
:104C2000DB001E9A1A400D921E9A1A4201D10623E9
:104C30001C930698079904000D000A000600024321
:104C400000D1D1E0080D4005400DBE4CA4466044A3
:104C50000A03120BBC4B13431F0001F0D3F9BB4AEC
:104C6000BB4B01F05AF9BB4ABB4B01F037F90400CA
:104C70000D000022B94B3000390001F02AF9B84A82
:104C8000B84B01F04AF902000B002000290001F0A6
:104C900025F901F0CFF9814601F0B4F904000D00C7
:104CA000B14AB24B01F039F90022B14B01F016F9CB
:104CB00001F0C0F90600AF4AAF4B2000290001F017
:104CC0002CF904000D00300001F09CF9AB4AAC4B0C
:104CD00001F023F902000B002000290001F0F9F88F
:104CE00004000D0002000B0001F017F90A900B916F
:104CF000A44BF31800261F0522002B0020002900DA
:104D000001F0ECF80E900F9122002B000020802182
:104D1000C90501F0DEF804000D0000229A4B0A9844
:104D20000B9901F0E0F80022984B01F0D7F802004F
:104D30000B000A980B9901F0D6F80022944B01F071
:104D4000CDF802000B000A980B9901F0CCF8020094
:104D50000B002000290001F0C1F802000B000E98A2
:104D60000F9901F0C0F80022774B01F0B7F832003C
:104D70003B0001F0D2F806000F0004000D00069A77
:104D8000079B01F027F9002830D001235B429C46A5
:104D9000E14400227D4B3000390001F0A4F804000A
:104DA0000D0023E01E9B04931D9B03931C9B029309
:104DB000089A099B0092019343460C9A5146584623
:104DC00000F0FCF811B0F0BCBB46B246A946A046C4
:104DD000F0BD0023002406930794069680231B064B
:104DE0009C46654407951AE7002399464B46633372
:104DF000C62B1ED804261E9B1B0526D52B0023433D
:104E00000FD0644A644B0698079901F0DBF800283C
:104E100079D00022614B0698079901F0C5F8002867
:104E200071D01C9B4B4506DD4A46981A431E1C93C5
:104E300003E00526DFE700231C938023DB001E9A96
:104E40001A431E920026002399461D9B9E4264D25F
:104E50009F1B02231E9A1A400A921E9A134202D0E6
:104E6000002E00D000274B46002B07D022002B003D
:104E70000698079901F037F8069007910022002361
:104E80000898099901F090F8002848D1444B1E9ADF
:104E90001340049303971C9B0293069B079C00936B
:104EA000019443460C9A5146584600F087F8002E6C
:104EB00000D187E71E9B9B063DD54525441C4346F4
:104EC000020051462800D8474B46DA179B1853403A
:104ED00005220592013E0496002203920A320292B4
:104EE0004A46D00F0190009343462200514658464F
:104EF000FFF78AFD0A9B002B00D163E702005F46A3
:104F00000C9E1D9D54E01C9B002B9ED00D9B002BE6
:104F10009BD01C9B013B1C9397E7002799E7069CBD
:104F2000079D2200290080200006844661440B0072
:104F300006920793AAE76525C0E7C046FFFFEF7F0B
:104F4000FFFFEFFF01FCFFFF0000F03FFB799F50E8
:104F50001344D33FB3C8608B288AC63F0000F83F94
:104F600061436F63A787D23F71A379094F930A40CA
:104F70000000E03F1655B5BBB16B0240EF39FAFEB9
:104F8000422EE63FFF03000000002C4000002440BA
:104F9000000018402D431CEBE2361A3F80842E415E
:104FA000FFF7FFFF541C434651462020B84722001C
:104FB000931BAB42F6D3100004E7C046F0B5DE46C3
:104FC00057464E464546E0B595B006900791934644
:104FD0009946209F1E9A1F9B1000190000F0FFFFAA
:104FE000002831D101225242BF4B1E981F9900F078
:104FF000DBFF002837D101225242BC4B1E981F997B
:1050000000F0E8FF00283DD10022B94B1E981F99FF
:1050100000F0E0FF002850D10022B64B1E981F99E7
:1050200000F0C2FF002848D1002200231E981F99DB
:1050300000F0BAFF002850D100239846229B5B0560
:1050400000D4B6E0002458E0229B0393219B0293F6
:1050500003230193A84B00934B465A4607990698A1
:10506000FFF7F2FB0EE1229B0393219B02930423A3
:105070000193A24B00934B465A4607990698FFF7B7
:10508000E3FBFFE00423229A1A4022990B4210D03E
:105090009B4B002A0FD0042222990391219902915F
:1050A000019200934B465A4607990698FFF7CCFBAE
:1050B000E8E0944BEDE70322EEE7229B0493219B6B
:1050C000039302971E9B1F9C009301944B465A46E4
:1050D00007990698FFF768FDD4E01E9A1F9B0020F1
:1050E000002100F0F6FE1E901F9101239846A5E7CF
:1050F0000CAB30221A55013F01341F2C01D8092F67
:10510000F6D81E981F9900F095FF050000F07AFF71
:1051100002000B001E981F9900F0DBFEFA007A4B8C
:105120009B181A685B680A920B9300F0F6FE0890D1
:10513000099100F0A3FF060000F060FF02000B00E1
:105140000898099900F0C5FE0890099100226F4B5C
:1051500000F040FF00282ED00136300000F04EFF56
:1051600002000B000A980B9900F024FF002801D0E0
:1051700001350026002F2CD1280000F043FF02004B
:105180000B001E981F9900F0A4FE06000F000022DD
:105190005E4B00F009FF002846D100225B4B300037
:1051A000390000F017FF00283ED1EB073CD5013550
:1051B0003AE0062746E70022544B0898099900F088
:1051C000F3FE0028D6D1002E01D0F307D2D5013648
:1051D000D0E7AA461F2C11D8013F0A21300000F069
:1051E0003DFC651C30310CAB19550A21300000F034
:1051F00035FC092E0ED906002C00EBE755461F2C76
:105200000CD87B1E002F09D00CAA302111551F008D
:105210000134F4E72B0055461C00F0E71F2C03D89F
:105220000CAB2E221A5501341F2C10D80A2128004D
:1052300000F0ECFB661C30310CAB19550A2128003C
:1052400000F0E4FB051E01D03400EDE73400032339
:10525000229A1340012B1CD01F2C06D84346002B4A
:1052600032D00CAB2D221A550134229B0393219B83
:10527000029301940CAB00934B465A46079906984B
:10528000FFF7E2FA15B0F0BCBB46B246A946A0460D
:10529000F0BD219B002B13D04346002B02D10C33D1
:1052A00013420FD0219B013B2193190003E00CAB6B
:1052B00030221A5501348C42CED21F2CF7D9CBE7BD
:1052C0002199F8E72199F6E7229B5B0704D50CABFF
:1052D0002B221A550134C8E7229B1B07C5D50CABFE
:1052E00020221A550134C0E7FFFFEFFFFFFFEF7FD9
:1052F00065CDCD4165CDCDC16062051064620510FC
:105300005862051054620510506405100000E03F1B
:10531000F0B5DE4657464E464546E0B593B0824668
:105320008B4690461193002900D1EBE200275546A9
:10533000119B1878002800D1E7E2252809D07C1CB1
:1053400043463A005946A847119B01331193270061
:10535000EEE7013311930024119A11780B00203BE2
:10536000D8B2102803D88300D048C3589F460B00FA
:10537000303BDBB2092B2CD92A292FD000230A93EA
:10538000119B1A782E2A39D000239A46119A137845
:10539000683BD9B2122976D88B00C549CB589F46B5
:1053A00001231C4301321192D6E702231C43013230
:1053B0001192D1E704231C4301321192CCE7082358
:1053C0001C4301321192C7E710231C430132119292
:1053D000C2E711A8FFF726FA0A90D1E71C9B1A1D15
:1053E0001C921868002804DB0A90119B013311936A
:1053F000C6E702231C4343420A93F6E78022D20009
:1054000014435A1C11925A781300303BDBB2092B1B
:1054100004D92A2A07D000239A46B7E711A8FFF734
:1054200001FA8246B2E71C9B1A1D1C9218680028DC
:1054300004DB8246119B01331193A7E70020F8E7B4
:1054400080235B002343511C119152786C2A01D0B8
:105450001C0018E0C0239B001C430131119112E095
:1054600080232343511C11915278682A01D01C00DB
:1054700009E0C0231C430131119104E080235B004B
:105480001C4301321192119B18780300253BDAB2BC
:10549000532A00D92CE29300864AD3589F46802392
:1054A0009B001C4301321192EDE780235B001C43FB
:1054B00001321192E7E7782809D0582838D06F28B0
:1054C00038D0622838D010239C430A2600E01026EA
:1054D000582833D0692803D0642801D00C22944383
:1054E000630501D50122944369282AD0642828D075
:1054F000A30500D59FE0E30500D5B8E0630600D41E
:10550000CAE01C9A111D1C911168FF220A400594E3
:105510000A9B04935346039302960023019300923F
:1055200043463A0059462800FFF76EFA070027E085
:105530001026CDE70826CBE70226C9E72022144330
:10554000C8E7A30520D4E30550D4630666D51C9AAA
:10555000111D1C911168FF220A40D317D118594020
:1055600005940A9B0493534603930296D20F01922B
:10557000009143463A0059462800FFF745FA0700D4
:10558000119B01331193D3E61C9BDA1D07218A433B
:10559000110008311C91116853689C46DB170C936D
:1055A0000D930C9A0D9B100048400E90624653409C
:1055B0000F930E980F990C9A0D9B801A99410E909B
:1055C0000F9108940A9B0793534606930496002371
:1055D00005936346DA0F02920090019143463A0028
:1055E00059462800FFF76EFA0700C9E71C9A111DFB
:1055F0001C911268D317D118594005940A9B049343
:10560000534603930296D20F0192009143463A000B
:1056100059462800FFF7F8F90700B1E7230605D53A
:105620001C9A111D1C910023D25E96E71C9A111D35
:105630001C91126891E71C9BDA1D07218A43110017
:1056400008311C9108940A9B0793534606930496CD
:105650000023059302931368546800930194434612
:105660003A0059462800FFF72DFA070088E71C9AF0
:10567000111D1C9105940A9B0493534603930296B3
:10568000002301931368009343463A0059462800CB
:10569000FFF7BAF9070073E723060DD51C9A111D11
:1056A0001C9112681204120C31E7C0466C6205109E
:1056B000B0620510FC6205101C9A111D1C91126845
:1056C00025E746281AD01C9B0733072293431A006C
:1056D00008321C9204940A9A0392524602925C6821
:1056E0001B680093019443463A0059462800FFF78F
:1056F00065FC0700119B0133119319E620231C431D
:10570000E1E7672801D0472802D180231B011C4311
:10571000452801D0472801D120231C431C9B073377
:10572000072293431A0008321C9204940A9A0392A7
:10573000524602925C681B680093019443463A000B
:1057400059462800FFF730FA0700119B01331193E7
:10575000EEE502231A002240924623421FD0012484
:105760001C9B1A1D1C927A1C9146187843463A00DD
:105770005946A8475346002B16D1119B013311936C
:105780004F46D5E5561C434659462020B8472300CE
:1057900032005C1C9D42F5D83D001700E0E7012374
:1057A0003A002F000A9DF4E74A46A9460A9D06E002
:1057B000571C434659462020C84734003A00661C0F
:1057C000A542F5D84D469146D7E71C9B1A1D1C9261
:1057D0001B6899465346002B00D1013B4E4601E021
:1057E000013613003278002A02D05A1E002BF7D15E
:1057F0004B46F21A10928023DB0026001E401C420A
:1058000003D0524501D95346109302231A00224077
:105810000B92234205D03A0037004C46A946554624
:1058200020E03A00109B5F46B3462E0006E0551C70
:10583000434639002020B04723002A005C1C0A9907
:105840009942F4D835005E46BB46109437004C466A
:10585000A946554606E01D000134561C43465946EC
:10586000C84732002078002804D0002FF4D06B1EE7
:10587000002DF0D117004D460B9B002B03D1119B3F
:105880000133119354E50A9F109B06E0561C4346D2
:1058900059462020A847230032005C1C9F42F5D8BF
:1058A0001700ECE721231C431C9B1A1D1C921B684C
:1058B0000093059408230493534603931023029303
:1058C0000023019343463A0059462800FFF79CF80D
:1058D0000700119B013311932AE57C1C43463A00D3
:1058E00059462520A847119B0133119327001FE536
:1058F0007C1C43463A005946A847119B013311933B
:10590000270015E50A4B9A4610E5AA46474502D3FB
:1059100043465A1E00E03A00434659460020D0470D
:10592000380013B0F0BCBB46B246A946A046F0BD55
:10593000154800100EB410B585B0010007AC08CCB6
:1059400003940122009452420348FFF7E1FC05B0A2
:1059500010BC08BC03B018470D48001000B583B058
:10596000009313000A0001000248FFF7D1FC03B0C6
:1059700000BDC0460D48001000B585B002900391EF
:105980000121009313004A4202A90248FFF7C0FC1C
:1059900005B000BD1748001001480421014B18470D
:1059A000D0150020D5590010014B9B681847000006
:1059B000D015002010B5010018231B881422108870
:1059C000984710BD10B5010018231B8816221088B7
:1059D000984710BDF0B5C64600B507000E0000257B
:1059E0000123984600E00135B5420AD2AC003C19CB
:1059F0002068FFF7DFFF20600028F4D100239846DD
:105A0000F1E7404680BCB846F0BD0000124A936FF3
:105A10009B0815D29066D166002905D0FFE7FFE705
:105A2000FFE7516F106F704704B580210906C21758
:105A30005140002800D0C8434FF01EFB002104BD98
:105A4000F0B5146E556E576F166FFFF7E3FF1466CF
:105A5000556657671667F0BD000000D0114A936F76
:105A60009B0813D210665166002905D0FFE7FFE7B7
:105A7000FFE7516F106F704704B5002801D0002078
:105A8000C0434FF0F9FA002104BDC046F0B5146ED2
:105A9000556E576F166FFFF7E5FF1466556657672B
:105AA0001667F0BD000000D094464A4A926F9208F3
:105AB000624601D228E0C046F0B5464E346E756E9F
:105AC000776F366F00F020F89446424A14665566A8
:105AD000576716676246F0BD94463E4A926F920839
