:020000041000EA
:1000000000B5324B212058609868022188439860DF
:10001000D860186158612E4B002199600221596106
:100020000121F02299502B49196001219960352056
:1000300000F044F80222904214D00621196600F024
:1000400034F8196E01211966002018661A6600F04E
:100050002CF8196E196E196E052000F02FF8012189
:100060000842F9D1002199601B49196000215960AB
:100070001A491B48016001219960EB211966A021F2
:10008000196600F012F800219960164914480160C1
:100090000121996001BC002800D000471248134993
:1000A000086003C880F30888084703B5996A0420EC
:1000B0000142FBD001200142F8D103BD02B5186610
:1000C0001866FFF7F2FF186E186E02BD00000240BE
:1000D000000000180000070000035F00212200005C
:1000E000F4000018222000A00001001008ED00E03C
:1000F00000000000000000000000000074B24E7A12
:1001000000200420F7010010C3010010C5010010F9
:10011000C1010010C1010010C1010010C101001097
:10012000C1010010C1010010C1010010C701001081
:10013000C1010010C1010010C9010010CB01001065
:10014000CD010010CD010010CD010010CD01001037
:10015000CD010010CD010010CD010010CD01001027
:10016000CD010010CD010010CD010010CD01001017
:10017000CD010010CD010010CD010010CD01001007
:10018000CD010010CD010010CD010010CD010010F7
:10019000CD010010CD010010CD010010CD010010E7
:1001A000CD010010CD010010CD010010CD010010D7
:1001B000CD010010CD010010CD010010CD010010C7
:1001C00000BE00BE00BE00BE00BE00BEEFF3058054
:1001D000103800BEF2EB887188880010A8880010E3
:1001E0003402001090A31AE700201F49086006C8D7
:1001F00081F3088810471D48006800282FD10DA4FE
:100200000ECC002902D000F012F8F9E71849194A7B
:10021000002000E001C19142FCD1174988471749ED
:1002200088471749884700BEFDE701C901C29A42C5
:10023000FBD37047A8880010C0000020E8150020FC
:10024000D09D00100000042000000420D09D00106C
:10025000001004200010042000000000704709482E
:1002600003F0E8FB0047000008ED00E0000000D0CC
:10027000E8150020043000205D2100103903001033
:10028000852200105756000006005250ABB3605351
:10029000E085001006005250861C0302F085001015
:1002A000060052505422A29DF885001005005250BD
:1002B000DE65F468D09D0010F8B5C046044B10B55B
:1002C000002B03D00349044800E000BF10BDC04626
:1002D00000000000842E00207082001070B5084DD0
:1002E000084C280004F0B2F9FA20800000F0A2F9CE
:1002F000200004F0B9F8FA20800000F09BF9F0E744
:10030000708200107882001010B5044C200004F0B8
:10031000ABF8FA20400000F08DF9F7E7808200107A
:1003200010B5044C200004F09FF8FA20C00000F043
:1003300081F9F7E78882001000B583B004F092F9E4
:1003400006F0F2FA1B4801F079F91B4804F08CF82A
:100350001A4A1B491B4800F0FDF800228021009238
:10036000194B1A480132490100F078F8002802D0F0
:10037000174804F079F8002280210092154B1648A6
:100380000232490100F06AF8002802D0134804F054
:100390006BF8002280210092114B12480332490170
:1003A00000F05CF8002802D00F4804F05DF800F07F
:1003B0001FF8FEE71027000090820010A9420010ED
:1003C0008542001061420010DD020010A88200107A
:1003D000B082001009030010C0820010C882001013
:1003E00021030010D8820010E0820010FEE7C04612
:1003F000F0B5C64600B500F069F9164F3B68B8681D
:100400009B001B587C689846002C1AD000230126BC
:100410009C4676429A008258916C002907D1526C12
:10042000127EB24203DD160001221D009446013304
:10043000A342EFD16346002B03D03D60AD002B58A3
:1004400098464346186C00F015F9034C200004F060
:100450000BF8FBE7E8150020F0820010F8B54E46D7
:100460004546DE465746E0B51F00364B8146984666
:1004700020201B680E0015009847041E60D014222F
:10048000494607F02BFC434630001B6867619847DC
:100490002576E06100284FD04C232B4D99466968A2
:1004A000A86801315943294B9A461B689847071E93
:1004B0003AD06B68A8609B009B46434683441B6808
:1004C0004C2098475B4618606B689B465A46AB6861
:1004D0009200D3589846002B1ED0402200211800CD
:1004E0005C6403F0EDFE5B4601336B602100434624
:1004F000E069043E801904221864143103F0E6FE1A
:10050000434642461B6C343B13642000F0BCBB46A0
:10051000B246A946A046F8BD5B46494659435346F4
:1005200038001B689847A860094DE0692B68984718
:1005300020002B689847E8E7054B20001B68984788
:100540000024E2E7682A0020E81500206C2A002039
:10055000642A00200300104810B503600F480024EF
:1005600002600F4A0020116000210E4A82B0106024
:10057000516080309460800098470B4B00221860D7
:100580000A4BFD30FF3018608021094B0094094868
:10059000FFF764FF02B010BD682A0020642A002023
:1005A0006C2A0020E8150020081A0020041A0020F8
:1005B000ED0300100C83001000B5FFB4404649461F
:1005C00052465B4664461FB4184C2368A2689B00E1
:1005D0009858403000F058F8154800688546236860
:1005E000A0689B001B5866689846002E1AD000230E
:1005F00001279C467F429A008258916C002907D1BE
:10060000526C127EBA4203DD170001221D0094468F
:100610000133B342EFD16346002B03D02560AD0018
:100620002B5898464346186C00F024F8E815002033
:10063000041A0020044A10B5136892689B009B5866
:100640009864FFF7B9FF10BDE8150020084B586803
:1006500000280BD09B688000C01819688A6C002A9B
:1006600001D0013A8A6404338342F6D17047C04610
:10067000E815002085461FBC8046894692469B4669
:10068000A446FFBC00BDC046694601607047C04635
:10069000FFB400B50120054909680860FFF7D6FFDF
:1006A00001BC8646FFBC00F003F885E7800F002000
:1006B00010B5052001F08CFCFA21890003F014FA32
:1006C000014B0138186010BD14E000E0002310B5A4
:1006D0000E4A0F4C05202360136001F079FCFA21CB
:1006E000890003F001FA0B4B0138186007232360DF
:1006F000FF230120084A1B06116840420B43136088
:10070000064906F03FFA62B610BDC04618E000E0A8
:1007100010E000E014E000E020ED00E091060010A1
:10072000074B80009C4660440368C90092000A435E
:100730005A400C231A4080235B0103431A60704720
:1007400004C00140D0231B061B6830B50500584289
:1007500043412F205B4283430D48EC088446072029
:1007600028408000814020000A4D3C3063448000D6
:10077000A40041511B19002A04D080229201134386
:10078000196030BDC022920113431960F9E7C046D9
:100790003041014000400140D023F0B5C6461B0661
:1007A00098461B680C4F9B001600FA5804000D0079
:1007B00000B5104209D1290014430D203200FC502D
:1007C00000F054F980BCB846F0BD01F077FD434617
:1007D0001B689B00FA58EEE7B42E002010B5040009
:1007E0000D2000F03DFAD0231B061B6802499B0038
:1007F0005A58A2435A5010BDB42E0020024B18681C
:100800008007C00F7047C04600C00640EFF310805D
:1008100072B6034A1368002BFCD0BFF35F8F70479A
:100820002C0100D0BFF35F8F0022024B1A6080F3CF
:10083000108870472C0100D070B5EFF3108C72B6A1
:100840000D4D2B68002BFCD0BFF35F8F0724CB0826
:10085000C618C05C01230C40A3401C0004400342A6
:1008600007D118433070BFF35F8F2C608CF3108872
:1008700070BD100001F00AFD2C0100D0F8B547460C
:10088000CE46884680B5EFF3108C72B6214D2C68A9
:10089000002CFCD0BFF35F8F9A422CD8D4080727D6
:1008A000055D061901241740BC402C421FD00721CA
:1008B0000127894609E0D408055D06194C46390030
:1008C0001440A1400C00294211D001329342F2D2CF
:1008D00001204042BFF35F8F00220E4B1A608CF361
:1008E000108800280FDBC0BCB946B046F8BD2543D0
:1008F00010003570EEE7BFF35F8F00232B608CF3A1
:100900001088012040424346002BECD0089801F0AB
:10091000BDFCC0462C0100D030B5EFF3108C72B690
:100920000A4C2368002BFCD0BFF35F8F0723012202
:100930000B409A40CD08435D93434355BFF35F8F0F
:10094000002323608CF3108830BDC0462C0100D0FA
:100950000021044B044ABFF35F8F02C39342FAD1D4
:100960007047C046000100D0800100D0044A1078D2
:10097000431CDBB2172B00D9102313707047C046FD
:10098000840F002010B5064B064C82B00100009386
:1009900018221F232000FFF771FF02B010BDC046D0
:1009A000188300100021002001238340002904D077
:1009B000034A1360034A13607047034A1360FBE75E
:1009C00080E200E000E100E080E100E001238340FC
:1009D000014A13607047C04600E200E0084B103047
:1009E0009B688000C358002B07D0064A00209B1A42
:1009F0002F229A424041C0B270470020FCE7C04617
:100A000000ED00E0880F0020024B10309B68800052
:100A1000C058704700ED00E070B50D00EFF3108690
:100A200072B60F4A1368002BFCD0BFF35F8F0D4BDB
:100A300010309B6884001B590B4A934203D09D429F
:100A400001D001F03BFC074B9B681D51BFF35F8F4A
:100A5000BFF35F8F0022024B1A6086F3108870BDCF
:100A6000240100D000ED00E0CD010010F0B55746A4
:100A70004E46DE464546E0B585B0060000911700BB
:100A8000EFF3108B72B66A4A1368002BFCD0BFF3E9
:100A90005F8F0025674B5D579A46002D00DAA9E06D
:100AA0006B00654C01935B199B009846A146C144BD
:100AB0004B4652469B7910361370604BB6009B68CC
:100AC00099590B1B2F2B33D95D4B994200D0ACE0C9
:100AD000019B42469C465B4B6544AD0063535A4BB9
:100AE0000232A218043B9B1A1B05584A5B0D65197C
:100AF00013436B80564B0121AB80FF23AB71009BEE
:100B0000EF71AB604B460B4319004C4B9B689951FE
:100B1000BFF35F8FBFF35F8F0022454B1A608BF3EB
:100B2000108805B0F0BCBB46B246A946A046F0BD51
:100B300001200A008243D3798C46BB4231D8454616
:100B4000130044491B1B5B415943090D3D4B635343
:100B50003D4B02356519043B5B1B1B053B4D5B0D93
:100B60002B43AA464D466B800425AC465546E044CF
:100B7000131F44441B1B1B055B0D1D434B46997102
:100B800000999D8099604946DF71334B01431360A2
:100B9000BBE75800C01880002018C179B9422FD98E
:100BA00002000623D356002BF3DA02932B4B614647
:100BB0000393131D9A4604235B429C46E14450462E
:100BC0004B461B1A1B055B0D9C46204B95719846A6
:100BD0006346404603439380019B5A199200039B4E
:100BE000A418A380029B1C4AA371009B2260E7719A
:100BF000A3608AE701F062FB002553465D574FE78B
:100C0000908802934005131D9A46031561469C4641
:100C10004046D444634604302018181AE0230005E7
:100C2000400D1B0218430390C5E701F047FB4FE757
:100C3000240100D0FD2F0020880F002000ED00E0EF
:100C4000CD01001000A1FFFFB80F002000E0FFFF62
:100C500001BDFFFFAAAA00000148804701BD0000B6
:100C6000F0B5DE4657464E464546E0B50C0083B02B
:100C7000EFF3108872B65D4A1368002BFCD0BFF307
:100C80005F8F5B4B5B499A68030010339F00D55917
:100C90008D4239D0A5424AD0574EAA1B2F2A33D8AD
:100CA00001229246824091464846544A12681040BA
:100CB00001904846524A1060BFF35F8FEFF3058200
:100CC0009346002A35D0934201D001F0F7FA2A006A
:100CD00053469A439068844208D175E04B005B18F4
:100CE0009B00F3189868A04234D01A000621515690
:100CF0000029F3DA844253D0019B002B26D04A46C8
:100D0000404B1A603D4B1A60394B9B68DD51BFF375
:100D10005F8FBFF35F8F0022344B1A6088F3108817
:100D200003B0F0BCBB46B246A946A046F0BD0D00DC
:100D3000EAE72A0053469A4390688442D6D10620B7
:100D400010561300002809DA0D0031E04A462C4BFA
:100D50001A60D9E706201856002822DB4200111835
:100D6000890074188A46A1689960E179D9710621D1
:100D700061569971002925DBA488F11A64052415B0
:100D800054440919E0240905490D2402214399809E
:100D900013181D4A9B001178F31899711070ABE776
:100DA00013005946002914D1FF31917117499180E0
:100DB00015490A789A71164A9B1B5B415A43120DDA
:100DC0000A7099E71349E2E706201056130000283D
:100DD000C4DA114A1149D21A083A5002400D0143AF
:100DE00099800F4952080A43DA8085E7240100D030
:100DF00000ED00E0CD010010880F002000E100E0D0
:100E000080E100E080E200E0FD2F002001BDFFFF57
:100E1000AAAA000001BD0000C20F002000F0FFFFE1
:100E200000F8FFFF032310B50400074A184094465A
:100E3000C0009C43FC3383406444226881409A4351
:100E400013000B43236010BD00E400E070B5EFF326
:100E5000058101240443EFF3108C72B6214A136814
:100E6000002BFCD0BFF35F8F1F4B05001F4AED1A0C
:100E70006D416A43120D1E4D8900AE6852B276581C
:100E8000A6421CD00621595691421CD01221595617
:100E9000914222D01E215956914220D02A215956E2
:100EA0000324914210D0134B19781A708171BFF34B
:100EB0005F8F00220B4B1A608CF3108870BDAB68FB
:100EC0000D4C5C50EFE700246100091989005B18A4
:100ED000FF21997109499980E5E70124F4E702248B
:100EE000F2E7C046240100D0880F0020AAAA000023
:100EF00000ED00E0FD2F0020CD01001001BDFFFF3F
:100F0000054B064A1360064A136053609360D36032
:100F100013615361936170478080808000E400E03A
:100F200004E400E01F2110B5091A0248FFF7F4FCA1
:100F300010BDC0460230002010B5084B084C82B0EE
:100F400001000093002205232000FFF797FC0028F2
:100F500001DB1F23181A02B010BDC04634830010F5
:100F60000230002070B504000E001500FFF7FEFCF3
:100F70000100200000F006F8A680E580BFF35F8F37
:100F800070BDC046024B9C466144890001607047B9
:100F90004000003410B50400FFF7E8FC0100200019
:100FA000FFF7F0FFFF232371BFF35F8F10BDC04633
:100FB00010B50400FFF7DAFC01002000FFF7E2FFA4
:100FC000FF23A380BFF35F8F10BDC04610B50400A0
:100FD0000120FFF7D7FC034BC3189B002360BFF32E
:100FE0005F8F10BD40000034034B9C466144890074
:100FF0000160BFF35F8F70474000003483680B4887
:1010000010B58446614462441201090159189B18C5
:101010005C684A680120944201D802D00020C0B226
:1010200010BD1A680B689A42F9D8F7E7FFFFFF0F67
:101030000A4B1968EFF3108072B60A68002AFCD0D8
:10104000BFF35F8F1B68BFF35F8F00221A6080F3CE
:10105000108840BF002000217047C046C82F0020E4
:10106000F8B5574645464E46DE46E0B598460CABC9
:101070001C780DAB1B78070091469A460568002C3A
:1010800059D1AC7B002C3BD0660029683619033E51
:1010900089194B78AB73002B00D1EB7300238B7055
:1010A0004B700B702D4BE218BB6812019B184A461F
:1010B0001A6042465A600A9A9A600B9ADA600023D4
:1010C0008B704B700B706B7B9B46002B26D02200E5
:1010D0006B685946A86898475B465B005B442A6882
:1010E000033B002812D058469619B070D118D35C33
:1010F000002B00D073705B460C706B735C450ED098
:10110000F0BCBB46B246A946A046F8BDD3189C70B9
:101110009119925D002A1CD15B460B706C734A4694
:101120004346387D00F0A0FB051E0AD10E9B002B24
:10113000E6D01D70E4E7660029683619033E891978
:10114000B0E75346002BF1D12100386800F0AAFD2A
:10115000ECE75A705B460B706C73E0E7FFFFFF0F24
:10116000F0B5DE4657464E4645460023E0B58BB007
:101170000893674B8200D45800239B46099000F0E7
:1011800013FB02000B006068EFF3108A72B656463C
:1011900001680029FCD0B246BFF35F8F21684F7B06
:1011A0008C46002F2ED0A5685A49A9467918090106
:1011B000894449460868496805000E00AD1A9E41F9
:1011C000002E5FDD02000B00099800F04DFB0023AC
:1011D00000229946002306920793002398466368ED
:1011E000BFF35F8F5A461A608AF310884346002B7C
:1011F00012D10028C3D10BB0F0BCBB46B246A94601
:10120000A046F0BD002300229946002306920793D2
:10121000002300209846E2E7089B4946180238431D
:10122000C047626805000E00EFF3108A72B61368BB
:10123000002BFCD0BFF35F8F002E40DB2B0033432D
:1012400002D02369002B55D12368D97B002905D012
:101250001A68480041185218033A57709A7B002ABE
:1012600000D19F73DF73E268013FD35D0133D35533
:101270005B4623616368BFF35F8F5A461A608AF347
:1012800010887CE7002E01D1002D9BD10021604603
:1012900000F086FC4B461A685B68069207934B4643
:1012A0009B6898464B46DB689946E368DB19013B2F
:1012B0001B7808931B020343236100208FE72369F7
:1012C000002BC1D0069A079B8021521BB34109060F
:1012D0008B4202D30122104B524200210491013172
:1012E0000391494601914146200002970091FFF782
:1012F000B7FEBDE700F058FA2A00330012184B4140
:10130000802109068B42E8D30122034B5242E4E7D5
:10131000A42E0020FFFFFF0FFFFFFF7F10B5144C2E
:101320006368002B04D00A211248FFF72BFE10BD82
:101330002300114A1021206800F04EFB032000F02A
:1013400027FA032000F0FEFA03200C4900F046FAC9
:10135000FFF70CFB0A4B9C4603232375D0231B0687
:101360001B6860446375074B80006060DC60DAE7EF
:10137000D00F0020C82F0020FD0F001061110010B9
:1013800040000034A42E002000487047D00F0020F9
:10139000F0B557464E464546DE46E0B585B001936A
:1013A00010AB1B780600039300239A4698460092E0
:1013B0007268EFF3108B72B61368002BFCD0BFF38A
:1013C0005F8F3568AC7B002C00D16DE067002B6827
:1013D0003F19033FDB195A78AA73002A00D1EA7338
:1013E000484AA118B2680901521800980199106082
:1013F00051600E9991600F99D16042469A705A706F
:101400001A706B7B9946002B6BD022006B684946A3
:10141000A86898474B465B004B442A68033B00286A
:1014200056D04846D719B870D118D35C002B00D0DD
:101430007B704B460C706B734C4553D0F3681B1993
:10144000013B18787368BFF35F8F42461A608BF3D5
:1014500010885346002B08D10002204305B0F0BC91
:10146000BB46B246A946A046F0BD039B002B46D022
:101470000E9B00200F99984703000B433FD00400B8
:101480000D1E1ADA009A019B121BAB4100920193C8
:1014900080221206934204D301231B4C5B4200932B
:1014A0000194039B9A4683E77368BFF35F8F1C60C8
:1014B0008BF3108801204042D0E700F075F98022BC
:1014C000001969411206009001919142E9D3E3E7C6
:1014D000D3189C70D119D25D002A00D05A704B46A7
:1014E0000B706C73307D009A019B00F0BDF9824651
:1014F0000028A3D02100306800F0D4FB9EE7002034
:10150000ACE7C046FFFFFF0FFFFFFF7FF8B50B0002
:1015100004004168EFF3108572B60A68002AFCD017
:10152000BFF35F8FFF222068D9B2467B1A408E42FC
:1015300007D006685700BF18F619033EB678002E8C
:1015400010D0E6681B0AB218013A1278DBB29A4250
:101550000DD000206368BFF35F8F00221A6085F30F
:101560001088F8BD22699A42F3D12661F1E700F0B4
:1015700099FBEFE7407D7047F0B504000D000626AB
:101580007642F717C64636196F4100B584B08F42D0
:1015900014D811D000F008F932003B00121A8B4128
:1015A000002B15DC002B3ED02000290000F006F9AE
:1015B00004B080BCB846F0BD8642EBD900260027B7
:1015C00000F0F2F832003B00121A8B41002BE9DDEB
:1015D000002302930193154B3200009314483B0003
:1015E000FFF7D6FE0028DFDB00239846BC46114AF1
:1015F000114F7B6A9C4504D8B96A8E42D4D99C4568
:10160000D2D11168EFF3108072B60B68002BFCD0BA
:10161000BFF35F8F1368BFF35F8F4146196080F39C
:10162000108820BFE5E7002ABED0D1E731100010B6
:10163000D00F0020C82F00200040054070B50600E4
:1016400000F0B2F8FA2204000D000023300000215F
:10165000920002F0B7FD8023001969411B069942F0
:1016600002D3012002494042FFF786FF70BDC04609
:10167000FFFFFF7F70B5EFF3058305000C0084B01A
:10168000002B0FD0104A0020536AA34203D3926A62
:101690000130AA4201D304B070BD1B1B5A1E9341F6
:1016A000D8B2F8E7094E02930193094B0200009368
:1016B00030000B00FFF76CFE011EE3DD20BF3000A1
:1016C000FFF724FFDEE7C04600400540D00F0020B2
:1016D00031100010F0B5EFF30582D6464F4646466E
:1016E0001000C0B51038EFF3108872B6214C236893
:1016F000002BFCD0BFF35F8F0123190081401E4DEA
:101700001F006963AA461D4D29601D4D2E78AC4609
:101710003500C5402F402B4215D053465F6A194B08
:101720008500EB589F4218D36246174B8E43EB5807
:101730001670BFF35F8F0022226088F31088002BA1
:1017400006D0984704E0BFF35F8F276088F31088C6
:10175000E0BCBA46B146A846F0BD0C4B92009C4690
:10176000624413681360BFF35F8F0023236088F324
:101770001088EDE7280100D0004005403C7005408E
:1017800001300020D42F0020CC1F0020D03F054086
:1017900010B5034B01001800024AFFF74DF810BDC9
:1017A000FB2F002058830010034B596A0A00986AE7
:1017B000596A8A42FAD1704700400540064A536A86
:1017C0009942FCD807D1044B02E05A6A914202D1F7
:1017D0009A6A8242F9D370470040054070B5040010
:1017E0000D00EFF3108672B61A4A1368002BFCD076
:1017F000BFF35F8F002D1BD02000FFF705F91649BE
:1018000081420AD02000FFF707F901212000FFF7ED
:10181000CBF80123A340114A1360114BA400E550FB
:10182000BFF35F8F00220B4B1A6086F3108870BDE8
:101830000121A1400A4BA200D5500A4B20001A7882
:101840008A4305491A70FFF70BFA00212000FFF7C1
:10185000ABF8E5E7280100D0D51600103860054048
:10186000CC1F002001300020F0B54F46D64646463A
:10187000C0B507002E4C616A0D00A66A616AA942D4
:10188000FAD18B4208D805D00120E0BCBA46B14657
:10189000A846F0BDB242F7D9EFF3108A72B62548D8
:1018A00001680029FCD0BFF35F8F0125BD402249AC
:1018B0001F4C8846097889462943C9B28C4641465F
:1018C00060460870391D890065630A511B49B800DC
:1018D0004350216A0020294219D0616A0800A66A93
:1018E000616A8142FAD18B4219D801D1B24216D82D
:1018F000CC450BD00E4B1F221D625D6301233A4085
:1019000093400F4A136043464A461A700120BFF3C2
:101910005F8F0022074B1A608AF31088B5E700201A
:10192000BFF35F8F0022034B1A608AF31088ACE785
:1019300000400540280100D001300020D42F0020B5
:1019400080E200E0EFF3108C72B60A490B68002BBE
:10195000FCD0BFF35F8F01238340074A074813621F
:1019600002789A430270BFF35F8F00230B608CF301
:1019700010887047280100D0004005400130002049
:1019800070B506000D00140000291DD0002A12D0E9
:1019900073688068984762006B0012195B193168A0
:1019A000033A033B002808D08A189570C818CB5C0E
:1019B000002B0BD10470280070BDCB189C708818C8
:1019C0008A5C002A05D105702000F5E75370047089
:1019D000F1E75A700570F7E710B583600023CCB2C9
:1019E00043730133426004738373C4730068421C01
:1019F000012C05D90133DBB2137003329C42F9D1BB
:101A0000FF230B405A00D318C0180023033843703B
:101A100010BDC04670B505000C1E07D063000168FC
:101A20001B19033BCB185A78002A01D1200070BD46
:101A3000500080180338091800204E7848702100A3
:101A400058702800FFF79CFF310004002800FFF7C2
:101A5000E1FF0600002C20D00028E7D03200210052
:101A60006B68A86898477200630092191B1929686F
:101A7000033A033B002808D08A189470C818CB5C3E
:101A8000002B00D053700670D0E7CB189E708818DA
:101A90008A5C002A00D05A7004703400C6E7C04641
:101AA000F0B557464546DE464E46E0B50D006F00A0
:101AB00001687F19033F0400C85D83B00192CA1911
:101AC000002850D043001B18033BCB185E78B44667
:101AD000002E1AD1019E002E42D0E67B002E04D0AB
:101AE00073009B19CB18033B5D70A37B002B00D1C7
:101AF000A573E57300282FD10023537003B0F0BC09
:101B0000BB46B246A946A046F0BD72006244033A05
:101B10008A185178884600215170894659703200E0
:101B200001002000FFF72CFF43468246002B07D020
:101B30005B0021684344033BCB185A78002A16D136
:101B4000424651462000FFF71BFF2168019BCA193E
:101B5000002BC2D10028CFD043001B18033BCB1869
:101B600000219970C8E7019B002BB6D1C4E7500053
:101B700080180338091848788346484648705870DA
:101B800041462000FFF7FCFE594680462000FFF743
:101B900041FF414602002000FFF7F2FE8046CFE7FA
:101BA000F0B557464546DE464E46E0B583B0019156
:101BB000457B04006F0000687F19033FC15DC219B7
:101BC000002952D04B005B18033BC3185E78B44623
:101BD000002E1CD1019E002E44D0E67B002E04D0A6
:101BE00073009B19C318033B5D70A37B002B00D1CE
:101BF000A573E573002931D1002328005370617368
:101C000003B0F0BCBB46B246A946A046F0BD720088
:101C10006244033A82185078804600205070814612
:101C2000587032002000FFF7ABFE43468246002B7F
:101C300007D05B0021684344033BCB185A78002A45
:101C400017D1424651462000FFF79AFE019B010042
:101C50002068C219002BC0D10029CDD04B005B18E1
:101C6000033BC31800209870C6E7019B002BB4D13A
:101C7000C2E7500080180338091848788346484660
:101C80004870587041462000FFF77AFE594680465A
:101C90002000FFF7BFFE414602002000FFF770FE64
:101CA0008046CEE770B5050000292CD0437B8B42DF
:101CB0002ED04C0000686418033C0419A278002A56
:101CC00021D053009B18033BC25CC6188A4202D144
:101CD0001BE0002A08D053009B18033BC3185A7816
:101CE0008A42F6D162785A70002301222800A3703C
:101CF0006370FFF7D5FE697B02002800FFF740FE06
:101D00006873012000E0002070BD63783370EBE75A
:101D100001221900FFF7C4FEF2E7C04610B50C20FF
:101D200082B000F0B1F9FEF769FD002810D0864BB3
:101D300086488649864A186059609860D96018615B
:101D400059619861D961186259625A6202B010BD36
:101D5000804CA06700F0EEF901227F4B1A60636CA3
:101D6000012BFCD103227D4B1A607A4A936B012B25
:101D7000FCD1013301217A4A7A480093043300F000
:101D80002DF90523784A00930121784800F026F9BF
:101D9000774B5A68FF2A02D8802252005A6080226C
:101DA0006E4B694C12011A602169002905D06069E7
:101DB00001F09AFE01300138FDD1E0226C4B6D48F4
:101DC00019680A40026002221968514001320A4033
:101DD000042102609A681142FCD08021664A090100
:101DE0001160802252005A60644B2361644B596831
:101DF000FF2900D85A6003220121574B1A60604A1C
:101E000093681942FCD0E023106803405D480360EA
:101E1000126803234A4002211340594A0360936821
:101E20001942FCD08021584B090119608021574B81
:101E3000490051606361564B5A68FF2A00D85960C7
:101E40008022544B12011A60E169002905D06069B3
:101E500001F04AFE01300138FDD1E0234C4A1168FF
:101E60000B404D490B6080214C4B090119608021CA
:101E7000364B49005160E361494B5A68FF2A00D84C
:101E800059608022474B12011A60216A002905D04F
:101E9000606901F029FE01300138FDD1E023404A9C
:101EA00011680B4040490B608021404B09011960CB
:101EB00080235B0053608022244BD20223623C4B80
:101EC0005968914200D25A6080223A4B12011A603E
:101ED000616A002905D0606901F006FE0130013811
:101EE000FDD1E023324A11680B4033490B60802159
:101EF000324B090119608023DB025360144B63628B
:101F00002F4B5A68FF2A02D8802252005A60802242
:101F10002C4B12011A60A169002905D0606901F0FB
:101F2000E3FD01300138FDD1E023254A11680B4063
:101F300025490B608021254B0901196080235B0036
:101F40005360124BA36101E7F8150020006CDC021E
:101F50001BB70000008000403CB0004030B00040A3
:101F6000002F685900800240008C864700C0024064
:101F7000308000403090004030A00040001BB7008F
:101F80003C8000403C9000403CA00040405973071A
:101F90005480004054B000405490004054A0004091
:101FA0006080004060B000406090004060A0004051
:101FB0006C8000406CB000406C9000406CA0004011
:101FC0004880004048B000404890004048A0004091
:101FD000014B8000C0587047F8150020F8B5040088
:101FE0000C2017001E000D0001F07EFD43011B1A9E
:101FF0009901C91AC90009188901380001F074FD56
:10200000069B37041B031F432368002B22DB1A4B5C
:102010001A4EE218531E9A4180239B019C4652425D
:10202000120B174B120362441A60164B1A6013000E
:10203000B1688B43FBD1C023221D9B011343212296
:102040002560A0601A602268002AFCDA0822E76096
:102050001A60F8BD3F2322681340AB42D7D1A36872
:102060001B051B0D8342D2D1EE22E368D20213403E
:10207000BB42CCD1EDE7C0460040FDBF00C00040F0
:1020800000E0004000F000408023024A9B00034330
:10209000D36270470080054010B580241C4BE405D6
:1020A0001C6000281AD001231A4C18431A4BDC611B
:1020B0001A4C44401C62596298628021144BC90535
:1020C0001960174817490860E021C9041960002AFF
:1020D00007D18022144B12061A6010BD0E4BD86136
:1020E000EBE753019B1A9B009A18802312015B04B3
:1020F0009A4209D213000D490B60074B5A608022A7
:10210000094BD2051A60E8E7094B1A00F3E7C0460D
:1021100000B00540D3C007B0008005402D3FF84F08
:10212000FCFF01000820014000A005407C2E00209B
:10213000FFFFFF00AA23064A1B0113602F23054956
:10214000D360054B19605368002BFCDA7047C0461A
:102150000040024000B0FA00006002402C4B2D4AC3
:1021600070B51A602C4A2D4B2D491A6014008B68EB
:102170009C43FBD12B4D2C4EB54208D2013E761B21
:10218000B60808CD984723000134B342F9D1FFF7D0
:10219000C5FD264A214B1A60214A9368DB43DB01C7
:1021A000DD09002BF9D14022214B224C224E9A67A7
:1021B0005A671A67DA66B44208D223682000002BF7
:1021C00020D00834FEF7F4FEB442F6D31B4C1C4E6C
:1021D000C022B168200002F079F8B460FEF7B8FBC5
:1021E000FEF78EFEFFF79AF8164C174EB44208D24F
:1021F000013E361BB60808CC98472B0001359E429D
:10220000F9D170BD0834FEF7C5FEB442D5D3DDE781
:1022100000E00040BFCDFBFEFE7F3C0000F0004030
:1022200000C00040CC150020DC150020FFFFFF019E
:1022300000F00140C4150020CC1500200000002053
:1022400000ED00E0DC150020E815002000BEFDE7F1
:10225000094A03001068002805D00849C3188B42BA
:1022600007D81360704706480449C31810608B42B2
:10227000F7D901204042F5E7742A0020000004202D
:102280000430002010B5FFF7E1FFC0460FB400B5E1
:10229000084883B002F0E8F8049B002B07D005A99A
:1022A0001800019101F0A6FB034802F0DDF80120BF
:1022B000FFF7CCFF7C8300108C83001010B5014821
:1022C000FFF7E4FF908300107047C046F8B557460B
:1022D000DE464E464546E0B599460A9B07009A46BB
:1022E0000D9B884693460B9C9B073BD10C9B9C42C5
:1022F0003DD21E1B0B9415000C005E442A004B4679
:10230000013521002020B847B542F7D1A0460B9CEB
:10231000002C20D0454636195346321B013C185D2F
:1023200029004B46B847002CF6D12B0035009846C3
:102330000D9B9B070FD55B46EC1A0C9BA3420AD959
:10234000464698462A004B46310020200134B847C3
:1023500001354445F6D32800F0BCBB46B246A94639
:10236000A046F8BD16001500002CD3D1E0E71600FA
:10237000002CCFD11500EEE7F0B54F464646D646C5
:10238000C0B584B098460EAB1B7894469946129B14
:102390000D9C109F119E9A0725D4002E65D1BC423A
:1023A00021D201221A409246202C00D1E9E00C9A59
:1023B000551E302202E0202C00D17BE001342A554A
:1023C000A742F8D85246002A0DD0B4420BD20C9A3C
:1023D000551E3022202C02D171E0202C2DD001344A
:1023E0002A55B442F9D1DA063CD55A052ED4002C30
:1023F00028D10F9A102A00D1B6E0022A00D1BCE001
:1024000030220C9C227001244A46002A65D15A07CA
:1024100000D499E02B220C9D2A55013403930C9B88
:1024200062460093029643460194FFF74FFF04B0C3
:10243000E0BCBA46B146A846F0BD2024DA06EDD588
:102440005A0503D4A74266D0B44264D00F9A102A2A
:1024500071D0022A57D0202CE0D022000134302540
:102460000C9FBD54202CD9D0CEE7012215001D4071
:10247000AA461A4236D04A46002A4AD10C321A429B
:1024800047D1BC42A1D2202C91D1202E17D8202494
:10249000DA06C3D55A051BD4202F01D0202ED5D162
:1024A0001F220F9D102D6FD0022DD8D162250C9FB9
:1024B000BD54D0E75246002A79D0202EBDD9202421
:1024C000DA06ABD55A0503D4202FE9D0202EE7D069
:1024D0000F9A102AA2D12024A0E72D220C9D2A5564
:1024E00001349BE7BC4200D37DE7202C00D05EE79F
:1024F000DA06F0D55A05EED4202F62D0202EEAD18C
:1025000034001F22CDE7202C00D187E722000134C0
:10251000CCE7013EB5E7621E012CC2D10F9A102A0A
:1025200000D06AE79A063BD558220C9C2270283AC4
:102530006270022468E79A060ED4202CCBD0782251
:102540000C9D2A55013486E71A0700D466E720223D
:102550000C9D2A55013461E7202CBCD058250C9ADB
:1025600012191570013476E79A0608D558220C9C8A
:10257000227030226270022446E76032F7E7782248
:10258000F5E7002A83D1B3E7A21E013C9D0603D4E0
:1025900078250C9FBD5460E758250C9FBD545CE71F
:1025A00078220C9C2270483A627002242CE7DA06EA
:1025B00000D433E75A058BD4202F00D044E71F22E4
:1025C0006FE73C001F226CE710B5002800D110BD5A
:1025D00001F0FEFEFBE7C0460B0010B5002802D05C
:1025E00049681B68984710BDF0B557464E464546AA
:1025F000DE46E0B599B08246894690460893229A15
:10260000239B1000190001F020FD002800D0CDE030
:10261000229823990122D94B524201F011FD002842
:1026200000D0C3E0229823990122D54B524201F0F9
:10263000F9FC002800D0B9E0229823990022002359
:1026400001F0F0FC002800D0F1E1229E239F8023BE
:10265000269ADB001A400D92269A1A4201D10623CF
:1026600024938023269A1B011A403B009346099627
:10267000334300D0B3E0002A00D0C2E1002300249D
:102680000A930B94002304250993259B0024AB4255
:1026900000D95C1B0223269A1A400C92269A1342F8
:1026A00003D06B426B415B421C40099B002B07D05F
:1026B0000A9A0B9B3000390001F05BFC06000F000A
:1026C000229823990022002301F0ACFC002803D0BB
:1026D000802109067B181F00269AAA4B00960197B5
:1026E0001340089E0493249B0394029342463300B4
:1026F0004946504600F0AAF90400002D67D020207A
:10270000269A4946024013005A4253415B42621CDA
:1027100018400A92330022004530D047099A6F1EB4
:10272000D317D4185C40D30F9B46002501E0202D21
:1027300013D008AA94461F23200063440A210135C0
:102740005E1901F0D1F93031317020000A2101F019
:10275000CBF926000400092EE9D8052306930023AF
:1027600004930A3303935B46089E029310AB0A9AC4
:10277000009349463300504605970195FFF7FCFD4D
:102780000C9A0400002A22D04246851A259AAA42B1
:102790001DD9B04657461600220043464946202020
:1027A0000135B8470134AE42F6D810E0269B4246C8
:1027B0000493259B49460393249B50460293229BF6
:1027C000239C00930194089B00F040F90400200032
:1027D00019B0F0BCBB46B246A946A046F0BD6A4B54
:1027E00078009C46400D604401F042FC674A684B0B
:1027F00001F0D9FB674A684B01F0B6FB674A3B031F
:102800001B0B1A4304000D0009981100644B0022B1
:1028100001F0A5FB634A644B01F0C5FB02000B000D
:102820002000290001F0A0FB01F03AFC099001F022
:102830001FFC5E4A5E4B04000D0001F0B4FB002259
:102840005C4B01F091FB01F02BFC5B4A5B4B2900D8
:102850000C90200001F0A7FB04000C980D0001F083
:1028600007FC574A574B01F09EFB02000B0020006B
:10287000290001F074FB04000D0002000B000A9413
:102880000B9501F090FB04000D000A980B990200D3
:102890000B0001F069FB00220E900F914A4B2000C3
:1028A000290001F066FB0022484B01F05DFB0200AD
:1028B0000B002000290001F05CFB0022444B01F0DA
:1028C00053FB02000B002000290001F052FB0A9A82
:1028D0000B9B0D0080210400C905002001F03FFB87
:1028E00002000B002000290001F03EFB02000B005B
:1028F0000E980F9901F03DFB0022284B01F034FBAC
:10290000344B0C9C9C4664442305002201F04BFB95
:1029100004000D0002000B00300039000A940B95F2
:1029200001F080FB00285DD123002A00C62509990B
:1029300063318D42AD4159466D420435002900D1C5
:10294000A3E6134363D030003900234A234B01F040
:102950006FFB002807D0002230003900204B01F027
:1029600061FB002853D1249B002B00D18DE60D9BE9
:102970005A1E9341249AD31A249386E6FFFFEF7FD1
:10298000FFFFEFFFFFF7FFFF01FCFFFFFB799F5009
:102990001344D33FB3C8608B288AC63F0000F03F82
:1029A0000000F83F61436F63A787D23F71A37909A5
:1029B0004F930A400000E03F1655B5BBB16B024093
:1029C000EF39FAFE422EE63F00002C400000244082
:1029D00000001840FF0300002D431CEBE2361A3FB5
:1029E00080842E41099B0022013B09932000164B55
:1029F000290001F0BEFA0A00010003000A910B92BF
:102A000094E7002300240A930B9400230993249A4B
:102A1000099B9A4214DDD31A013B24938023269A02
:102A2000DB001A4300230025269209932DE680221D
:102A300012069446229B1E00239B63441F0006E659
:102A400000232493EAE7C04600002440F0B5454641
:102A5000DE464E465746E0B595B08B4690469946C1
:102A60001E9A1F9B0A9019001000209D01F0EDFA9C
:102A7000002800D0B0E11E981F990122C74B524296
:102A800001F0D0FA002800D037E11E981F990122EA
:102A9000C34B524201F0D4FA002800D0A7E01E98A0
:102AA0001F990022BF4B01F0CBFA002800D088E02C
:102AB0001E981F990022BC4B01F0B4FA002800D0E8
:102AC0007FE01E981F990022002301F0ABFA002836
:102AD00000D0FAE000230B938023229C229ADB0093
:102AE0001C401A4200D102E1092D00D87CE106A960
:102AF0008C462C00172200233021093C624401330C
:102B0000D154EF1A202B00D132E1A342F7D1002299
:102B1000A44B069207931E981F9901F0C1FA050075
:102B200001F0A6FA02000B001E981F9901F017FA97
:102B3000069A079B01F037FA0890099101F0D4FA40
:102B4000060001F091FA02000B000898099901F0C3
:102B500006FA0022954B0890099101F071FA0028BD
:102B600000D1D2E00136300001F07EFA069A079BD0
:102B700001F05EFA002801D000260135AA46002F98
:102B800000D098E0280001F073FA02000B001E98B4
:102B90001F9901F0E4F9854B002206000F0001F0B7
:102BA00041FA0CAB9A46002845D10022300039008A
:102BB0007E4B01F045FA00283DD1EB073BD50135AE
:102BC00039E0229B42460493219B594603930A987D
:102BD0001E9B1F9C0295009301944B46FFF704FD3A
:102BE00015B0F0BCBB46B246A946A046F0BD229B3C
:102BF0005B0767D403226E4B2299019203912199BE
:102C00000291009342464B4659460A98FFF75EFBF5
:102C1000E6E706AA94461723280063440A210134F4
:102C20001E1900F039FF3031280031700A2100F000
:102C300033FF051E76D0202CEBD10323229A1340BC
:102C4000012B1DD1219B002B1AD00B9B002B00D0F8
:102C5000BBE0229A0C33134200D0B6E0219BA34282
:102C600000D887E006AB9C4617223023624404E07C
:102C70002199013413558C4259D0202CF8D12024AD
:102C8000229B01940393219B02935346B9E706AA22
:102C9000944617230A216344300001341D1900F0C3
:102CA00023FF3031297030000A21013F00F01CFF62
:102CB000092E46D90600202CE9D155460CAB20241C
:102CC0009A46B8E704223B4B96E71E9A1F9B0020CA
:102CD000002101F044F901230B938023229C229AC6
:102CE000DB001E901F911C401A4200D0FCE600221F
:102CF000314B0627069207930DE7229B0393219BF6
:102D00000293042301932D4B7BE700220898099935
:102D1000264B01F087F9002800D02FE7002E4FD175
:102D200001362BE70323229A1340012B66D0202C77
:102D3000A6D00B9B002B1FD02D23524613550134D8
:102D40009EE75546202CB9D030233A19002F08D0E1
:102D5000172006A9013409180B55202CAED0944237
:102D6000F6D10CAB9A462E2352461355013462E736
:102D70002024CCE6202C83D0229B5B0708D4229B06
:102D80001B0700D47CE7202352461355013477E714
:102D90002B2352461355013472E7C046FFFFEFFF65
:102DA000FFFFEF7F65CDCD4165CDCDC10000E03F98
:102DB000A48300109C83001080842E41AC830010FB
:102DC000F30700D4DAE60136D8E6219B013B2193D4
:102DD000A34200D946E7AAE7229B0393219B0293D3
:102DE00003230193074B0CE7074BEA009B185C6831
:102DF0001B682F000693079400248CE6219B002B70
:102E000095D022E7A883001050850010F0B55746F2
:102E1000DE464E464546E0B5A5B01F002E9B9146C6
:102E20000D93CA4ACA4B82468B461A60002900D1CC
:102E300029E2002338789846002800D12BE2C54BC0
:102E400044460C93C44B55464E460E930AE0631C11
:102E50009846220033005946A8474446387800284F
:102E600000D187E001372528F1D108239A46043B99
:102E70009946023B9846013B00229C460B943878C9
:102E8000791C0300203BDBB2102B03D80C9C9B0069
:102E9000E3589F460300303B0B9C0B92092B3AD919
:102EA000002398462A2800D1DDE000239A462E28E8
:102EB0004BD00300683BDBB2122B1ED80E9A9B004E
:102EC000D3589F4663460F001A43D8E743460F0086
:102ED0001A43D4E74B460F001A43D0E710230F00E4
:102EE0001A43CCE753460F001A43C8E780235B0020
:102EF0000B9A78781A430B9201310F0067284FD84C
:102F00002428A4D90300253BDBB2422B9FD8934948
:102F10009B00CB589F46002398460B9B47469C46F8
:102F200000E00131BB00DB195B001F180878303F5F
:102F30000300303B092BF4D963460B930023B846BA
:102F40009A460F0001312E28B3D180200B9AC00081
:102F500002430B9230225242944678780B0084440C
:102F60006246092A00D8AAE12A2800D1B9E10F0057
:102F700001319EE7A046AA46B146C84503D30123C6
:102F80005B424B4498464B46424659460020D04748
:102F9000200025B0F0BCBB46B246A946A046F0BD15
:102FA00001006939C9B20F2900D950E701238B40CC
:102FB0009C466B4B994663464A4613400F936246C4
:102FC0004B461A4200D068E10A2956D0072900D0A2
:102FD0003DE70D9B02CB9846002900D092E10B9B68
:102FE00010211A008A4310001131084381468020C5
:102FF0001A00C0000240110003421CD114AB9C46D1
:103000001F220F2362440D959C4615000F9B0B94C5
:1030100002E0202B0CD0110064460C402000373019
:10302000092C00D807380133E8540A090F29F0D8D1
:103030000B9C0D9D0F934B46082206935346059219
:1030400008320392002204930F9B029201931CAB5F
:1030500022000093594633002800FFF78DF94346BC
:1030600004000D93FAE60D9B04CB9046002A79DB11
:1030700078780D930F00013117E70D9B02CB149365
:103080000B789C4618005346002B00D134E10028F1
:1030900015D05346013B013399460D940B9C89444E
:1030A0004A460B00A14601E0934203D05C7801330D
:1030B000002CF9D14A465B1A0D9C0B920F9380238A
:1030C000DB0099460B9A13400D934B461A4204D0ED
:1030D0000F9B534501D953460F93022399460B9AF0
:1030E00013400B934B46134200D1F5E16346002B8E
:1030F00000D1D6E10D9B002B00D182E10B1BD14604
:1031000031009A463B00A1442E005F464D46220006
:103110009B46894609E04B463900541CB04753464C
:10312000185D002800D192E122009542F3D14B4670
:103130005A46A946BB46350017001E004C460B9B5D
:10314000002B00D0ADE1149B0D9387E60D2E0010EF
:10315000782E0020B4830010F883001044840010FF
:10316000419000000B9A283802430B92424652428B
:10317000787890460F000D93013196E678786C28A8
:1031800000D15DE180230B9A5B001A430B92013161
:10319000B3E680239B00ABE67878682800D148E14D
:1031A00080230B9A01311A430B92A6E6672800D1BF
:1031B000B2E0472800D11AE1452800D11CE10B9A62
:1031C0000721049242460D9B0392073352468B43DC
:1031D000190002920CC92800009201930D9122005F
:1031E00033005946FFF700FA040037E6462800D1BD
:1031F0008DE00B9A0721049242460D9B0392073300
:1032000052468B43190002920CC928000092019388
:103210000D91220033005946FFF718FC04001DE60B
:10322000631C98462200330059462520A84744468F
:1032300014E60D9B04330F93631C99460B9B9A076E
:1032400000D40AE10D9B2200187859463300A847A4
:1032500043464444012B00D86FE1B0462E002500C0
:103260004C46B9465F4622004346013439002020CF
:10327000B047AC42F7D12C00BB4635004F4646461E
:103280000F9B0D93EAE5D64B38789A460023984673
:10329000002800D0D3E500246FE66F2842D000D884
:1032A000FDE11023782800D19BE00B9A9A430B9202
:1032B0000A239C46002314930A330F9338E05746A1
:1032C0000B9AB900C919490001330F181878303F1B
:1032D000010030390929F4D9BA460B921F00591C54
:1032E000E7E50D9BB87804CB0237D143C9170A40F4
:1032F00092460D93791CDCE5002800D1DFE602231D
:103300005B42C8E621200B9A0243914676E62023D1
:103310000B9A1A430B926CE780230B9A1B011A43FA
:103320000B924CE708239C460023149308330F9319
:103330000B9880230200DB001A40110002001842A3
:1033400000D080E00C239A431000802302009B00F1
:103350001A400B92184200D0F1E0802302005B007B
:103360001A4091460D9A04321492184200D0C3E2DA
:10337000430600D5D7E0030600D421E30D9B1B884C
:103380000993002B00D02DE110339843002900D180
:1033900028E10023994643460593534604930F9B27
:1033A00006900393002302934B4601931CAB22002B
:1033B0000093594633002800FEF7DEFF0400C2E602
:1033C000582809D0622800D0E3E202239C4600235B
:1033D000149302330F93ABE720230B9A1A430B92FB
:1033E000103B9C460023149310330F93A0E78023D7
:1033F0000B9A1B011A430B9220230B9A1A430B9230
:10340000DDE60B1B9A460F9B99463B0037005E4654
:103410009B4622003B003100A84753460134185D0B
:103420000028F6D14B460F935B46B3463E001F0083
:1034300085E6C0230B9AB8781A430B92F91C5CE519
:10344000C0239B00F6E70D239A4310007DE75B46FF
:103450003500BB464E461F0071E64346012B66D938
:10346000631E434432002E001D003B00A2465F460F
:1034700091469B4622004B46013439002020B0473C
:10348000AC42F7D15B463500BB464E46A14654469A
:103490001F000D9B4A461878594633004444A847FC
:1034A000EEE60F9BA146984500D84CE64444E41A4A
:1034B000B0462E0025004C46B9465F4622004346E2
:1034C000013439002020B047AC42F7D12C00BB4674
:1034D00035004F46464636E60F98804500D873E2E1
:1034E0004346E218131A32002E001D003B0091469D
:1034F0005F469B460F9122004B4601343900202045
:10350000B047AC42F7D15B46BB461F0043460F991C
:1035100001330F930B7835009C464E4660460028D9
:1035200000D0E7E50FE60D9B1B78099329E70D9B7B
:103530002200187859463300A8474C46A0E60D9A59
:10354000FA3BFF3B07329A430133994691444B467D
:103550000D931368526815921A4306D110329043A6
:1035600000220992002900D083E06122810600D563
:103570004122D2B20A9214AA91460A9A00210A3A2A
:103580000B9242461792524618925A46B2460991F9
:103590001E001F31149B4944BB4616941A95002403
:1035A000674698468946159D19901B920AE030326D
:1035B000D2B24B4601341A55A8454CD0202C4CD0E1
:1035C00006000D003A0000233000290000F0CAFA7E
:1035D000D2B2092AEBD90B9B9C466244D2B2E8E7EF
:1035E000C92200106123820600D54123DBB20A3BC9
:1035F0000B93434614A91F228C46159353466244ED
:10360000B2460D9417974C468046A9461700099D6F
:103610000F9E169308E03033DBB201343B55B542C0
:103620000ED3202C0CD005003100280000F05CFAED
:10363000CBB20929EFD90B9A94466344DBB2ECE78D
:10364000159B40469846169B4D465646A1469A46BF
:103650000D9C179F9FE6B742B0D9179B56469846D8
:10366000189B5F469A461B9B09949B46169C19988B
:103670001A9D43460593534604930F9B069003936C
:1036800000230293099B01931CAB2200009359462F
:1036900033002800FEF770FE0400FFF7DFFB102365
:1036A0000B9A9A430F92692800D091E10B998023DD
:1036B0000A00DB001A4010000A00194203D0112151
:1036C00018008A430F920F9A802311009B00194023
:1036D0008C461A425BD1802311005B001940894659
:1036E0000D9904310B911A4200D0B2E013005B0631
:1036F00000D4EDE00D9B1B781A00D90F0D91002B23
:1037000000D1A3E0100014AA944642461F2315924C
:1037100052466344A846BA464D461494B146040046
:103720001F00169201E0202D0FD020000A2100F08A
:10373000DBF901357E193031317020000A2100F0AB
:10374000D3F926000400092EEDD8159B4E46A94654
:1037500045469846169B57469A46149C0F9B0693DF
:1037600043460593534604930A2303930D9B029308
:103770004B4601931CAB22000093594633002800AE
:10378000FEF7FAFD0B9B04000D93FFF767FB072282
:103790000D9B07339343013294469C4462460D923D
:1037A0000CCBD90F0B911100194300D19BE0D91715
:1037B0001391129151401091139959401191109801
:1037C0001199129A139B801A99411090119114AA81
:1037D000944642460023159252469946169232006C
:1037E0001F336344A8464E46BA4614941F00109CEB
:1037F000119D914601E0202E10D0200029000A22C0
:10380000002300F0AFF9013630322B00BA550D001D
:1038100022000400002BEED1092AECD8159B10944D
:103820001195454698464B46169AB14657461E0096
:103830009246149C0F9B069343460593534604936C
:103840000A2303930B9B02934B461CE7002885D168
:1038500059E70D9B1B68DA0F1100002B00D1A6E081
:10386000DA179818504014AA91461F2342464B4439
:10387000A8460D94169704006546B1461F001491A2
:10388000159201E0202D0FD020000A2100F02CF924
:1038900001357E193031317020000A2100F024F901
:1038A00026000400092EEDD8159BAC4645469846E7
:1038B000149B4E4619000D9C169F0F9B0291069378
:1038C00043460593534604930A230393634650E704
:1038D00013001B066ED50D9B00229B5ED9175A184C
:1038E0004A4092B209E7002399460028A2D100225B
:1038F0000023109211936AE70D9B1B689946002BD9
:1039000003D110339843002938D16123820600D5B2
:103910004123DBB20A3B0D9343461693534614A949
:103920001F228C4617932B0062444D46B2461594D5
:1039300018978046170099460B9C0F9E08E030337D
:10394000DBB201343B55B5420ED3202C0CD0050020
:103950003100280000F0C8F8CBB20929EFD90D9A40
:1039600094466344DBB2ECE7169B40469846179BAF
:1039700056464D469A460B94189F159C4346059310
:10398000534604930F9B06900393002302930B9BD3
:103990000BE50B9980230A00DB001A4010000A0097
:1039A000194200D08BE610239A430F928BE6002831
:1039B00083D158E70D9B1B68D9175A184A409CE6DB
:1039C0000D9B1B680993DCE4030001330F93A5E50D
:1039D0000B926DE400B585B0039101210290009334
:1039E000034813004A4202A9FFF710FA05B000BDD0
:1039F000D925001010B5094A0300146884B0002CC2
:103A000008D0012200910648524203A9A047012094
:103A100004B010BD00F028FD0020F9E7782E00204A
:103A2000C925001001480421014B1847001000204F
:103A3000553A0010142310B50100188804331B8870
:103A4000984710BD162310B50100188802331B8853
:103A5000984710BDF8B54746CE4680B50F1E19D021
:103A600014239946043304000025012698464B464A
:103A70001888434621681B88984701C4431E984113
:103A8000013540420640AF42F1D13000C0BCB946DA
:103A9000B046F8BD0126F8E7124A936F9B0815D28D
:103AA0009066D166002905D0FFE7FFE7FFE7516F79
:103AB000106F704704B580210906C21751400028D5
:103AC00000D0C84304F084FB002104BDF0B5146E9F
:103AD000556E576F166FFFF7E3FF1466556657670D
:103AE0001667F0BD000000D0114A936F9B0813D2F7
:103AF00010665166002905D0FFE7FFE7FFE7516F29
:103B0000106F704704B5002801D00020C04304F0B6
:103B10005FFB002104BDC046F0B5146E556E576FB3
:103B2000166FFFF7E5FF1466556657671667F0BD19
:103B3000000000D094464A4A926F9208624601D231
:103B400028E0C046F0B5464E346E756E776F366F1E
:103B500000F020F89446424A146655665767166787
:103B60006246F0BD94463E4A926F9208624601D288
:103B700054E0C046F0B53A4E346E756E776F366FCE
:103B800000F04CF89446364A146655665767166737
:103B90006246F0BD002B24DB11D000293EDA00B5CF
:103BA000C943404200D1013100F038F8C9434042D6
:103BB00000D10131DB43524200D1013300BD002A64
:103BC000EBD1002801D1002905D00020C90FC90779
:103BD00001D1C043410800B504F0DAFA0022002305
:103BE00000BD00B500290ADBDB43524200D101339E
:103BF00000F014F8C943404200D1013100BDC9436F
:103C0000404200D10131DB43524200D1013300F088
:103C100005F8DB43524200D1013300BD002923D116
:103C2000002B18D1002A0CD0BC460D4F38667A669E
:103C300000210023FFE7FFE7FFE77A6F386F674651
:103C40007047002801D00748010000B504F0A0FA31
:103C50000022002300BD02000B000020002170475D
:103C6000000000D0FFFFFFFF002B00D0BFE0130CCF
:103C700028D1002AE7D080B4114F39667A66FFE771
:103C8000FFE730B4040C7B6F396F1B0423433B66A2
:103C90007A66FFE7FFE7FFE7C04684B27B6F3D6FC0
:103CA0001B0423433B667A66FFE7FFE7C046002319
:103CB0002C042D0C7A6F386F00196941B0BC704725
:103CC000000000D0F0B594460025140E01D1120278
:103CD0000835140F01D112010435940F01D192005F
:103CE0000235D40F01D152000135D40B0134254FD8
:103CF0007C66254C3C660E0C93B2FFE7FFE7FFE7BE
:103D00003C6F6643360C7703BE467343DF0B5B04A0
:103D1000C01AB941130C7343DB18C91ACE086643A5
:103D2000360CB64493B273431F0F1B01C01AB9413E
:103D3000130C73431F0B1B05C01AB941860D8F026C
:103D40003E436643360C092D24DB520A7243801A27
:103D50007703460A6643360C16235B1BDE40DF40C2
:103D6000BF1964466643821B704604350633010062
:103D7000D940A840C01900D30131A24206D2002385
:103D8000F0BD0000000000D0FFFFFFFF121B01305C
:103D9000F3D3F1E709277F1BFE406446A2B27243CA
:103DA000801A00D20139220C7243130C1204821AB9
:103DB00099410B007046043513370100F940A840C3
:103DC000801900D30131002B02D1A2420AD2F0BDEA
:103DD000013000D30131121BFAD2013BF8D1A242CB
:103DE00000D2F0BD013000D30131121BF7E7F0B56E
:103DF0001C0C00D080E00CB400251C0A04D11B026E
:103E0000160E3343120208351C0B04D11B01160F8A
:103E10003343120104359C0B04D19B00960F3343AE
:103E200092000235DC0B02D192185B4101351C0077
:103E3000971864410134464F7C66464C3C660E0C34
:103E4000FFE7FFE7FFE7C0463C6F6643360C7703AA
:103E5000BE4697B27743C01B00D20139C01B00D2C7
:103E600001399FB27743C91BC91B170C77437E04E6
:103E7000FF0B801BB941CE086643360C0C2D33DB9B
:103E8000B644120B1F053A431B0B97B27743C01B76
:103E900000D201399FB27743C91B170C77433E0408
:103EA0003F0C801BB941860D8F023E436643292794
:103EB0007F1BFE400C3D7746AF40BF1930BCA2B21D
:103EC000ABB272437343801A9941220C7243130CB4
:103ED0001204801A994102000B000137001BA9410E
:103EE000F9D2781E0021F0BD0C277F1BFE407746DB
:103EF0007F0BAF40FF19E0E700245D1C07D0144F93
:103F00007D663966FFE7FFE7FFE7FFE73C6F95B2A5
:103F10009EB265436643401BB141150C1E0C6543C0
:103F2000664336042F0C3E432D04401BB141994299
:103F300004D202000B0020000021F0BD01D190420C
:103F4000F7D3801A994101349942F2D3F6E7000081
:103F5000000000D0FFFFFFFF48404140484018B438
:103F6000134B5B68019308BD18B4114B1B68019398
:103F700008BD94460F4A926F920805D2624618B463
:103F80000B4BDB68019308BD0A4AF0B5146E556E01
:103F9000576F166F6246FFF7F2FF064A14665566C2
:103FA00057671667F0BD18B4014B9B68019308BDB5
:103FB00070170020000000D0FFB550404240504034
:103FC00059404B40594000E0FFB5154F4C00640D7F
:103FD00003D0BC4204D10C0314D80020090D0905FC
:103FE0005C00640D03D0BC4204D11C030AD800223B
:103FF0001B0D1B0501264B4009D44B4003D58B42BA
:1040000000D18242FFBD9942FCD19042FFBD0B43DB
:10401000DB1803431343F5D0C9434918FFBD000023
:10402000FF07000000B5FFF7CFFF804100BDC0468D
:1040300000B5FFF7C1FF01D9002000BD012000BD80
:1040400000B5FFF7B9FF804100BD012040054A00DF
:10405000121804D85A00121801D800207047012005
:1040600070470020704700000021002805D17047EC
:10407000C1174840401AFAD0C90713B5064B1B6850
:1040800098470CBC441CA2401005120B0349091BA5
:1040900009051943114310BDC42E00201F04000060
:1040A00010B54C00620D8023D218DB00D21A5B05DC
:1040B0007E2A10DD9E3A13DACC170903490819430A
:1040C0005242D140640001341532202A05DAD04032
:1040D0000843604310BD002010BD0846604310BD7A
:1040E000C80FC018013810BD18B4024B5B6A0193A9
:1040F00008BD00007017002010B50148FEF7C6F893
:10410000A0850010132370B51D78012D15D010DD8A
:104110001B48FFF797FC1B4C01008022200000F099
:10412000D5F8022D06D01848FFF784FC174B18600D
:1041300070BD144C164BA364F5E7164B114C23606D
:104140006360A360E36023616361A361E361236251
:104150006362A362E36223636363A363E363236431
:104160006364A364E36423656365A365E365236611
:104170006366A366E36623676367A367E367D9E7BC
:1041800053440000701700204C330000C42E002060
:1041900099410010F940001007B5604601880A0AED
:1041A0000230DF2AFAD1C9B2820804D302884088DB
:1041B0000004104300E00068014A5050039007BD1E
:1041C0007017002051434343C9188C46110C83B229
:1041D0004B4310B4040C614392B280B2504362432B
:1041E0001C041B0C001910BC59411304120CC018FC
:1041F000514161447047000010B50148FEF746F890
:10420000A0830010132310B510481C78FFF71AFC88
:104210000100012C0AD003DD80220D4800F056F881
:104220000C48FFF707FC0C4B186010BD084C5422DB
:10423000200000F04BF82200084980322368002B50
:1042400000D1216004349442F8D1E9E753460000DC
:10425000C82E00204C330000C42E0020F94100106D
:1042600010B5040003F038F8002804D0034B0419FB
:104270009C4200D810BD0248FEF708F80000042058
:10428000B885001010B50C0003F01CFB002804D00A
:10429000034B04199C4200D810BD0248FDF7F6FFFD
:1042A00000000420B885001010B503F01FF810BD01
:1042B00001480421014B184710100020553A001006
:1042C000014B1B681847000010100020014B5B6871
:1042D0001847000010100020F0B5C64600B5437D19
:1042E00007000D001600002B38D0002A2EDD00211B
:1042F0006A1E90466A5C037D4C1C00200A2A0CD082
:10430000A64216D043461B5D21000D3B5A42534145
:104310006A5CDBB24C1C0A2AF2D1002BF0D1884235
:1043200017DB022110483B689847A64207D02000BF
:10433000E8E7864203DD311A3B6828189847AD1933
:10434000013D2B780D3B5A4253413B7580BCB8462A
:10435000F0BD091A3B6828189847E2E70368110086
:1043600028009847F2E7C04628860010F0B5C646F8
:104370000B6806000C0000B5802B06D05A1C22608A
:10438000E418267180BCB846F0BD0F4B1D68002DA7
:1043900016D00B1D98460D4F02E02D69002D0FD051
:1043A0002B68002BF9D03B68002B01D0AB42F4D135
:1043B000280041462268FFF78FFF2D69002DEFD1BD
:1043C00001220023DBE7C046582A0020702A002083
:1043D000F0B5CE46474680B583B06B460600DD1D7E
:1043E0002870FDF7E1F900231A4A12184B41802189
:1043F00009068B4202D30122174B5242174908008B
:10440000884603F005FF164B81461C68002C14D02B
:10441000144F02E02469002C0FD02368002BF9D040
:104420003B68002B01D0A342F4D1200001222900D7
:10443000FFF752FF2469002CEFD14B46002B05D12A
:10444000300003B0C0BCB946B046F0BD404603F0F2
:1044500097FEF5E740420F00FFFFFF7FC4150020E5
:10446000582A0020702A0020F0B5DE4657464E46F6
:104470004546E0B585B0070003F09EFC0600FDF759
:1044800093F900232B4A12184B41802109068B42D5
:1044900002D30122284B5242284908008B4603F0E0
:1044A000B7FE274B01901C689A46002C3BD0254B49
:1044B000984602ABDD1D0A23994602E02469002CD0
:1044C00017D02368002BF9D043461B68002B01D07E
:1044D0009C42F3D1200032003900FFF7FDFE4B462D
:1044E0002000012229002B70FFF7F6FE2469002C22
:1044F000E7D1019B002B18D153461C68002C06D035
:104500006368002B0BD098472469002CF8D1300049
:1045100005B0F0BCBB46B246A946A046F0BD246932
:10452000002CEDD1F3E70028F1D0584603F028FE27
:10453000E2E7C04640420F00FFFFFF7FC4150020A6
:10454000582A0020702A00200A4A1368002B05D13F
:104550000CE01A001B691032002B07D09842F8D1EA
:10456000002902D103691360016170470029FCD062
:104570001060FAE7582A0020F0B5CE46474680B5CD
:10458000A3B004000D00FDF70FF90023294A12180B
:104590004B41802109068B4202D30122264B524215
:1045A000264F380003F034FE00230600019322005A
:1045B0002B00234801A9FFF70DFA019B8046002B31
:1045C00014D1204B1C68002C06D06368002B0BD044
:1045D00098472469002CF8D1002E25D1404623B0FD
:1045E000C0BCB946B046F0BD2469ECE7154B1D6868
:1045F0009946002D1CD0144C02E02D69002D0FD0DF
:104600002B68002BF9D02368002B01D0AB42F4D1EA
:104610002800019A02A9FFF75FFE2D69002DEFD156
:104620004B4601951C68CEE7380003F0A9FDD5E79D
:104630000195D1E740420F00FFFFFF7FC415002026
:104640006D430010582A0020702A00200FB400B5D6
:1046500083B004A901C90191FFF78EFF03B008BC24
:1046600004B0184710B500F0D9F910BD7047C04626
:104670000022014B1A707047FE2F00204B7900205A
:10468000FF2B0BD18B79002B08D1CB79012B05D1D6
:10469000082A03D9024B8A7809301A707047C0463D
:1046A000FE2F00200120704770B5012901D00120A4
:1046B00070BD13495379107909781B020343002018
:1046C0009942F5D15378012B08D0022BF0D100206C
:1046D00064220021FDF7E0FC0120E9E79478D2781C
:1046E000050012021443D20502D5620A93401D0050
:1046F0000448FFF79FF97F210300214028009847D5
:10470000FE2F00205542000001230370004870472F
:104710002C8600104B780A781B0213438A7810B558
:1047200012041A43CB781B0613439622D2009342FD
:1047300000D010BD0348FFF77DF9002103000800F9
:104740009847C04655420000024B1860024B196062
:104750007047C046F8200020FC20002010B5024B16
:104760001878FCF733F910BDFF2F0020114B70B5FE
:104770001A68002A1AD0EFF3108172B61068002868
:10478000FCD0BFF35F8F00200B4A596010701B688C
:10479000BFF35F8F186081F3108800240025074B5A
:1047A0001878FCF713F92900200070BDFA240025C1
:1047B000A400F4E79C2E002000300020FF2F0020F2
:1047C00070B5040000200E0001F0E8FA002836D091
:1047D000002001F0FBFA002831D0FCF7E5FF0023B0
:1047E000184A12184B41802109068B4216D2164DE9
:1047F000280003F00DFD002821D0002001F0CEFAA2
:1048000000280FD101200021404200F0C1FC032408
:104810006442280003F0B4FC200070BD01220B4B61
:104820005242E4E7002001F0D1FA0028EAD021004A
:104830003200002001F0D6FA041EEAD1E7E7032493
:104840006442E9E740420F00CC2F0020FFFFFF7FCA
:10485000F8B5DE46574680B505000C00FCF7A4FF0E
:104860000023374A12184B41802109068B4202D39C
:104870000122344B5242344908008A4603F0C8FCF6
:10488000002803D1C0BCBB46B246F8BD002001F0F1
:1048900085FA00284AD00026002C43DD2B4B9B468E
:1048A00014E0A919002001F011FB070001200021EC
:1048B000404200F06DFC002001F0CCFAFCF774FFE0
:1048C000224BF61918605960B4422BDD002001F02C
:1048D00017FBA71B0200B84200DD3A00002AE0D116
:1048E00001200021404200F053FC002001F0B2FA08
:1048F000002001F053FA002814D0002001F000FB42
:104900000028E1D1FCF750FF5B460F001A685B6896
:10491000002184460E4812184B419F4202D8D3D141
:104920009445D1D9504603F02BFCABE70020002181
:10493000064B18605960504603F022FCA2E7C046BF
:1049400040420F00FFFFFF7FCC2F002068170020A0
:1049500020A1070010B5244C84B00021200003F0F2
:1049600047FC00281CD1214B1A68002A16D0EFF30F
:10497000108172B610680028FCD0BFF35F8F01244D
:104980001B48596002781B68D2B20470BFF35F8F76
:104990000020186081F31088002A0AD004B010BDEE
:1049A00001200021404200F0F3FB200003F0E8FB6F
:1049B000F4E7FCF7E9FC0400FCF7F6FEFA2200231A
:1049C000920012184B41802109068B4202D301222A
:1049D000084B524201210291002101910649200019
:1049E0000091FCF7D5FCD9E7CC2F00209C2E0020AD
:1049F00000300020FFFFFF7F6D470010054B10B512
:104A00001868002804D0044B0022196801F036F819
:104A100010BDC046F8200020FC200020D02310B597
:104A20001B0684B01C68FCF7AFFCFCF7A3FDA0429A
:104A300002D0002004B010BD274B1B7801F042FCCF
:104A40002648FCF7A7FA0120FCF776FAFF23244C4E
:104A5000244920701840FBF7DFFF20780121FBF785
:104A6000A3FF0520FBF7BAFF002827D1FCF78CFC39
:104A70000400FCF799FEFA220023920012184B4121
:104A8000802109068B4202D30122174B5242012199
:104A9000029100210191154920000091FCF778FC5A
:104AA0000822040000211248FFF70AFC002CC0DB9A
:104AB00010480121FFF748FD0120BBE700220E4905
:104AC0000520FBF7D3FFFBF751FF094B010018004E
:104AD000FCF78AFAECE7C046A4880010CC2F00202F
:104AE000FF2F002055490010FFFFFF7F6D4700108A
:104AF0009C2E0020201000205D47001000487047C9
:104B0000FC86001000487047A886001010B504000D
:104B100017480378002B20D0002C06D1154B1648DF
:104B20004380063BFF3B038010BD052C19D8134B77
:104B3000A400E05812490123013804E001330A803F
:104B40000231142B0FD0C25C002AF7D1C022DBB295
:104B50005B00920008481343E5E7112100F01AF8C2
:104B6000DAE70020E0E7CA2303489B00DBE7C04602
:104B7000E42F002009040000302A00209086001055
:104B8000322A002010B5024800F0D8F810BDC04607
:104B9000BC2E002030B54B1E012900D1A7E0664A8B
:104BA00011780D092C0030349F2900D9A2E004703F
:104BB000012B00D1BEE00F21147821400C003034CD
:104BC000092900D998E04470022B00D1B2E0547852
:104BD0002509290030319F2C00D990E08170032BEA
:104BE00000D1A7E00F2121400C003034092900D961
:104BF00087E0C470042B00D19CE09478250929003B
:104C000030319F2C00D97FE00171052B00D191E05C
:104C10000F2121400C003034092900D976E044717D
:104C2000062B00D186E0D4782509290030319F2C4D
:104C300000D96EE08171072B00D17BE00F2121406C
:104C40000C003034092966D8C471082B00D171E0FA
:104C500014792509290030319F2C5FD80172092B66
:104C600068D00F2121400C003034092958D84472F3
:104C70000A2B5FD054792509290030319F2C52D856
:104C800081720B2B56D00F2121400C0030340929A2
:104C90004BD8C4720C2B4DD09479250929003031A2
:104CA0009F2C00D9073101730D2B43D00F212140D8
:104CB0000C003034092901D937310C0044730E2B14
:104CC00038D0D1790C09220030329F2900D907321F
:104CD00082730F2B2ED00F220A4011003731092A80
:104CE00001D830321100C173102B23D010300023B3
:104CF000037030BD07345AE737310C0063E70731E2
:104D00006CE737310C0074E707317DE737310C0071
:104D100085E707318EE737310C0095E707319DE7CE
:104D200037310C00A3E70731AAE737310C00C47212
:104D30000C2BB1D1C018DAE7BC2E002010B588B01A
:104D400004000D2200216846FFF7BAFA0D22002167
:104D500004A8FFF7B5FA4B236A466846137004A906
:104D60000D2203F005FA1521082220006944FFF7FF
:104D7000ADFA08B010BDC04610B501210520FBF703
:104D800013FE10BD10B500220021024800F058F9B2
:104D900010BDC046982A00208022024B5202DA64DD
:104DA0007047C04600201150F0B5C64600B5060059
:104DB00000F020F90C231B4DFF22AB6705201A4998
:104DC000FBF754FE40239846184C40220021200057
:104DD000FFF776FA43460127238321210023144A53
:104DE0006770A260136063545F316184414621871C
:104DF000053963540F4A10496360E260A1620B6099
:104E00006362E26203F01CFA80239B052F64EB646B
:104E100090230A4A3000EA50FFF7BEFF80BCB84634
:104E2000F0BDC0460000115039060020782A00204D
:104E300084001050000110508000105010D001006C
:104E40000B785B0602D14B78052B00D070478A782F
:104E5000014B1A60FAE7C04600001150F0B5C64693
:104E600000B5CC7888780A794B797F21A407014076
:104E70001B02C50913434F00A20F1400324E7A19CA
:104E80005201B218907001206840507000205B05FC
:104E90005B0DD0701383D4768046CA00012D33D0C9
:104EA0002A488446880162448446B444604682604D
:104EB00040461060002933D0254AC900904662461A
:104EC000414451603F223F339343022C00D15B00A9
:104ED00020487A1901685201B218D1601E4ACB18D5
:104EE000036051405A40802388465B019A4228D88B
:104EF0004346A4061C4380237F197F01F61972687C
:104F00001B062343136011E0144884468801624461
:104F10008446B4446046826240461060002909D14C
:104F200000236D0175196B600D4BEB60012080BC97
:104F3000B846F0BD084AC9009046624641445162F5
:104F4000C0E7FDF7BBF9D3E7782A002084001050B2
:104F500004001050802E00200000105080001050DF
:104F60000001105010B503F06BF910BD10B57F2093
:104F70000C0020404000E409110000191A00034B06
:104F80004001C01800F05CF8012010BD782A002014
:104F90007F23180010B50840CA090B4203D1074906
:104FA0007D3B9B1A8B66400080188022044B400199
:104FB0000021C018120103F04BF910BD0020115060
:104FC000782A00207F22130010B50B400A4200D13E
:104FD00010BDC9095B005B1804485B01C0180023C1
:104FE00000220349C37003F033F9F1E7782A002067
:104FF000FFF7FFFF80220D4B520410B51A600C4BD7
:105000000C491A6010008B689843FBD10A4C9C2213
:1050100000212000FFF754F98022002152010748A7
:10502000FFF74EF90923636710BDC04600E000405A
:1050300000F0004000C0004000001150000010507F
:10504000002310B5C382013382828376016104009C
:1050500003F0B6F8002804D080219023074A890283
:10506000D150200003F09CF8002802D001232377C0
:1050700010BD200003F0D4F8FAE7C046002011501C
:10508000024B5878431E9841C0B27047A81E0020BA
:10509000024B18784007C00F7047C046A81E00207A
:1050A000034B1878FF38431E9841C0B27047C04682
:1050B0005C100020F8B5CE46474680B52A4E050064
:1050C0003378FF2B01D001203DE0532200212748F7
:1050D000FFF7F6F8264C2000FBF75CFF254B1C6021
:1050E000254C2000143CFBF771FF200001F0CCFBA5
:1050F000224B234F1C60234B9846002F1ED01800D4
:10510000FFF702FB204B186043461B781F4A002420
:105110009146002F14D04A46A3421AD890474346DE
:1051200001341B78E4B2A342F3D228003570FFF7B4
:105130003BFE2800FFF720FE012004E01B78E5E796
:10514000002C04D00020C0BCB946B046F8BD0F4AC0
:10515000E4E70D4A630012681B19DB00D318002B2B
:10516000F0D01A68DAE7C0465C100020A81E0020C4
:10517000601E0020FC1E002054100020001F002094
:1051800009470010F82F0020801B0020195F001035
:10519000F0B5DE4657464E464546E0B591B001F0C3
:1051A00097F8002800D1FCE0C34BC44E9946C44B8D
:1051B0000DAC0293C34B9B464B46019335686A691D
:1051C000EFF3108172B61368002BFCD0BFF35F8F32
:1051D000A9612800210001F085F96A69AB69BFF374
:1051E0005F8F0021116083F31088002800D1D8E080
:1051F0006378082BE2D8019A9B00D3589F466368D6
:10520000002BDBD0A0689847D8E77F202179AC4DF0
:1052100008404300CA09EB189B181D0001273035D0
:10522000EA78BA43EA70EA780337BA43EA700028AA
:1052300000D1F2E0A44FDB7C002F06D0A34A127805
:10524000934200D2F1E09B1ADBB2002B00D0A8E021
:105250009F4DA36862792078A847AFE70122984D57
:1052600001202B78042113432B703323EA5C824303
:10527000EA54EA5C8A43EA540133EA5C8243EA5422
:10528000EA5C00208A43EA5423789A4600F0F8FC4E
:10529000602223791A40602A00D1B5E0402A00D16B
:1052A000AFE0DB06DB0E012B00D1D3E0022B00D1F7
:1052B00020E1002B00D0A7E0202A00D153E1002AF2
:1052C00000D0A1E06379092B00D99DE0814A9B00C1
:1052D000D3589F46029B1B78DB0700D46EE77E4BBA
:1052E000002B00D16AE700E000BF67E7744D2B7820
:1052F000DB0700D462E7794B002B00D15EE728780A
:105300000007C00F00E000BF58E7002523786E4F6C
:105310009A466E4B98461B78002F49D05A46AB42AE
:1053200063D850469047434601351B78EDB2AB42F7
:10533000F2D2634D532200212800FEF7C1FF102254
:10534000FF21E81CFEF7BCFF28002022FF211330BC
:10535000FEF7B6FF2EE0002523785B4F9A465B4BA5
:1053600098461B78002F2ED05A469D4233D3504684
:105370009047434601351B78EDB2AB42F2D2504D17
:10538000532200212800FEF79BFF1022FF21E81C7A
:10539000FEF796FF28002022FF211330FEF790FF32
:1053A00014E011B0F0BCBB46B246A946A046F0BD21
:1053B000002D38D000F05AFC494B002B00D1FDE6FF
:1053C00000E000BFFAE6002D19D03D4D00F04EFC84
:1053D0002379AB70F2E6434A6B0012685B19DB007D
:1053E000D318002BF1D05A68C1E73E4A6B0012680F
:1053F0005B19DB00D318002BDCD05A6891E7314AE7
:10540000B5E7394800281AD120780021FFF7C0FD00
:1054100080212078FFF7BCFDD0E6A3686279207870
:1054200000F042FCCAE6274A7BE72E4A5800126881
:10543000C318DB00D318002BB3D01D6909E700F0B7
:105440001FFC012150460EAA00E000BF002800D03A
:10545000B4E6D9E7237A0F2BD6D81B4FEB18DB78AD
:10546000002F06D0194A1278934200D29CE09B1A72
:10547000DBB2002BC8D11D481D4D00F001FC0121FD
:105480005046EB680EAA9847002800D096E66022A6
:10549000150023791D401A42B6D163790A3B012BCE
:1054A000B2D800F0EDFB63790A2B00D17DE15046C4
:1054B0000EA900F06FFB81E678870010001F002026
:1054C000A81E0020955F001009470010F82F00204B
:1054D000896100109C87001000000000000000009F
:1054E00000000000801B002000000000A5600010EC
:1054F000048800107023217A0B4285D1C8098446A4
:105500000F330B405B00E8186044C07CB14F80460D
:10551000002F07D0B0480078804550D34746381A4E
:10552000C0B28046404600283AD1002A00D0F5E0BB
:10553000AA4A9046677902203A008243012A00D1A4
:10554000F0E0002F00D05FE7EB1863443033DB78E6
:105550000CAA9B07DB0F02321380504602230EA9D0
:1055600000F02EFB2AE6237A0F2B00D94CE7994F47
:10557000EB18DB78002F06D0974A1278934200D2BE
:10558000F3E09B1ADBB2002B00D03DE79448934D2B
:1055900000F076FB01215046EB680EAA984755E7CC
:1055A0009046002AC6D02FE78E4A59001568CB18BE
:1055B000DB00ED18002D00D126E7E8685DE74746DF
:1055C00088487F00006847448046FF00B844002AAE
:1055D000B0D04346002B00D116E7D86800F050FB4E
:1055E000434601215046DB680EAA98472EE7A3796F
:1055F00003931A006B789A4207D06B78002B00D087
:1056000058E1039B002B00D0F8E0039B50460EA905
:105610006B7000F0BFFAD1E56B780CAA0232137000
:10562000504601230EA900F0CBFAC7E5E3881A0A19
:10563000D8B20F2A00D9E7E66B499300CB589F46B2
:105640000EA800F023FB5046A179FFF79BFB022236
:105650002B7813432B70B1E5E388012B00D0D3E600
:1056600008222B78504693430EA92B7000F092FA33
:10567000A4E5022029780CAB9A1C8B068908DB0F65
:1056800001400B4368E7E388012B00D0BCE6082209
:105690002B78504613430EA92B7000F07BFA8DE552
:1056A000524B002B00D1AFE600E000BF021E00D13C
:1056B000AAE6D37891781B020B4350460EA900F05E
:1056C0007FFAC3E64A4B002B00D19DE600E000BF05
:1056D000021E00D198E6504613780EA900F070FA29
:1056E000B4E62189FFF712FA021EF4D18CE6022AF1
:1056F00000D12DE13F4B002B00D185E600E000BF3B
:105700000200002A00D17FE6D3E7FFF7F7F9122362
:1057100002000EA9504600F053FA97E62F4B30488E
:1057200098465BE7E288002A09D1334A1078012FB6
:1057300026D0EF1867443037FB789B073ED54346A9
:10574000002B00D13AE5D86800F09AFA43460121CF
:10575000DB680EAA50469847002000F091FA3423E7
:10576000EB5CDB0700D529E5A1E61E4A5900156868
:10577000CB18DB00ED18002D00D145E6E86807E7FF
:1057800030229146EB18634499444B46DB789B07E3
:10579000D5D5FFF717FC4B460222DB7893434A46E8
:1057A000D370D378BB43D370C9E70CAB9A1C504677
:1057B00001230EA9157000F003FAFFE4FFF7E8FBE0
:1057C0000222FB7813430122FB70FB781343FB702A
:1057D000B5E7C04609470010F82F002004880010E4
:1057E000A5600010801B0020C4870010000000008E
:1057F00000000000000000005C100020581EC0B235
:10580000FFF780F9002800D1FEE543780793022BCB
:1058100000D0F9E50121C279B146931152110B4034
:105820000A4012015B0113432A782F318A43134344
:105830002B700923984680444746A846C37882784F
:105840001B021343C31804935C4B0993049BBB4294
:1058500000D881E07B7801220B2B02D13B78FA78CB
:10586000FF187B78042B23D10025049B0B92DB1BB4
:105870009BB20593524B19780693524B0A93524BA5
:1058800008930A9B002B52D0099B089E8D4245D35A
:1058900039005046059A98478446082802D9059A47
:1058A000824262D2069B01351978EDB2A942E8D254
:1058B0004E46A9E55046FFF755FB00229146434A64
:1058C000AB7805922A004D46914604933C4B3D4FE0
:1058D00098461B78002F1BD0059A9D422CD350462A
:1058E0009047434601351B78EDB2AB42F2D24D46AC
:1058F000532200212800FEF7E3FC1022FF21344848
:10590000FEF7DEFC2022FF213248FEF7D9FC02E040
:10591000002D1BD04D46049BAB7072E618232E4A17
:105920006B431668F618002EC2D0B368B0E7002D9E
:10593000BED1224B244EABE7274A6B0012685B199D
:10594000DB00D318002BE5D05A68C8E71F4AC6E72A
:10595000FFF7D8F80200D4E6204B45464E46002B10
:1059600000D152E600E000BF4FE60B9A012A1FD09B
:105970000021464609E0BB78CB18DBB2F318D87893
:10598000FF2895D10131DD70C9B29142F3D1B04603
:1059900066462B00390032000E4800F01FFDB44669
:1059A000069B67441B78AB4200D34FE74E462BE57E
:1059B000024BB1689942DBD1079AD9E7C15F001069
:1059C000F82F00200947001004880010955F001090
:1059D000AB1E0020BB1E0020801B0020000000002A
:1059E000F8B557464E46DE4645460C00E0B5160073
:1059F0001F00002A3CD01F4B00259A467023994671
:105A00001D4B9B4617E05B462000997800F0A8FCF0
:105A100000281FD021004046FFF720FA002819D0A7
:105A2000A378DA09012A1CD00A9A01351370237869
:105A3000E418B5421CDA6378052B0BD1E3789B0799
:105A40009B0FBB4206D153464A461B789846A37823
:105A50001A42D8D00020F0BCBB46B246A946A046A8
:105A6000F8BD0B9A013513702378E418B542E2DBD8
:105A70000120F0E75C100020A81E0020802310B554
:105A80001B0184B001930E4B02901C680391626964
:105A9000EFF3108372B611680029FCD0BFF35F8F5B
:105AA000A361200001A900F0DFFD6269A369BFF3D3
:105AB0005F8F0021116083F3108804B010BDC046D1
:105AC000001F0020702270B5094B0C001D788B78E8
:105AD0001A4201D0002070BD064B2000997800F0DA
